:100000000C9439000C9456000C9456000C94560035
:100010000C9456000C9456000C948A020C945600D2
:100020000C9456000C9456000C9461020C945600EB
:100030000C9456000C9456000C9456000C945600E8
:100040000C94AC030C945B030C9456000C94560077
:100050000C9416040C94E1020C9456000C94560077
:100060000C9456000C9456000C9456000C945600B8
:10007000BA0111241FBECFEFD4E0DEBFCDBF11E027
:10008000A0E0B1E001C01D92A93CB107E1F710E08A
:10009000C2E7D0E004C02297FE010E94D804C03716
:1000A000D107C9F70E9458000C94DC040C9400009E
:1000B000DF92EF92FF920F931F93CF93DF93809184
:1000C000BC0181608093BC010E9407028BE1809398
:1000D000280191E09093290180932B0180913A01AE
:1000E00090913B01A0913C01B0913D010396A11D6F
:1000F000B11D80932E0190932F01A0933001B093F6
:10010000310180913A0190913B01A0913C01B09165
:100110003D010A96A11DB11D8093320190933301D8
:10012000A0933401B093350132E3E32EF12CCFEFED
:10013000D0E020E2D22E80912E0190912F01A0914B
:100140003001B091310120913A0130913B01409151
:100150003C0150913D0182179307A407B50750F564
:100160000496A11DB11D80932E0190932F01A093A1
:100170003001B0933101799B02C080EC01C080E472
:100180009FB190FF8F7B9091BC0191FDFCCFF894C3
:100190009091BC019E7F9093BC0180932A01809135
:1001A000BC0182608093BC01809178008062809362
:1001B000780078948091320190913301A0913401BC
:1001C000B091350120913A0130913B0140913C01C1
:1001D00050913D010496A11DB11D82179307A407FC
:1001E000B50750F4F89485B5877485BD8091780083
:1001F000877480937800FFCF8091BC0186FF54C044
:10020000F8948091BC018F7B8093BC0178942091FD
:10021000C0013091C101E091BE01F091BF01F6959E
:10022000E795E20FF31FEE7FF093BF01E093BE016D
:1002300060913601709137018091380190913901B8
:100240003F7740E050E0260F371F481F591F569553
:100250004795379527953093C1012093C001809130
:10026000BD018F5F8093BD018830F1F4CF01B701EC
:100270000E94AF048931C1F08A3168F04091630077
:1002800050E09E01281B3109421753076CF49091EE
:1002900063009E5C06C090916300891728F49091DA
:1002A0006300981B909363008091BC0184FF25C07C
:1002B0008DE791E00E94F0018431F8F000E010E059
:1002C0000AC0F801E050FF4F60818DE791E00E9485
:1002D000F5010F5F1F4F80912C0190E0081719075F
:1002E00084F3F89480917800806280937800809104
:1002F000BC018F7E8093BC0178948091BC0185FF06
:1003000023C08EE391E00E94F0018431E8F000E028
:1003100010E00AC0F801EC5EFE4F60818EE391E0D0
:100320000E94F5010F5F1F4F80912D0190E008178B
:10033000190784F3F89485B5806285BD8091BC016E
:100340008F7D8093BC0178948091BC0183FF07C0AE
:10035000F8948091BC01877F8093BC01789481B32D
:100360008D2581BB86B7806186BF889586B78F7ED5
:1003700086BFE1CE8EE391E00E94C3018DE791E05C
:100380000E94C3010895FC0114AE8BE385AF16AE45
:100390000895FC0114AE8BE385AF16AE0895FC0101
:1003A00096AD81E09C3309F080E00895FC0196ADA4
:1003B00081E0911180E00895FC0124AD820F911D30
:1003C000FC0180810895FC0186AD815086AF84AD2B
:1003D00090E001966CE370E00E94C30484AF08953E
:1003E000FC0196AD8CE3891B0895FC01462F85AD79
:1003F00090E001966CE370E00E94C30485AF86AD87
:100400008F5F86AF85ADE80FF11D4083089589E4C5
:1004100084BF80E886B980B38C7F80BB82B3836061
:1004200082BB80B38C6780BB81B3837881BB519AD8
:10043000419882E08BBB8091BC018F7B8093BC0193
:100440002CE994E03999FECF19BA28BB9ABB89B739
:1004500080FFFDCF399B05C08091BC0180648093F3
:10046000BC011ABA89B789BF8091BC0186FFEACF67
:1004700012BC3CE031BD82E086BD26E024BD13BC49
:1004800098E995BD109275003093740080937900BF
:100490002093770010927600909378008BBB8AB7F8
:1004A00081608ABF19BA8EE488BB83E08ABB8AB7B1
:1004B00088608ABF80917100816480937100789414
:1004C00008951F920F920FB60F9211248F939F934E
:1004D000AF93BF9380913A0190913B01A0913C0171
:1004E000B0913D010196A11DB11D80933A019093F9
:1004F0003B01A0933C01B0933D0181B390E4892777
:1005000081BBBF91AF919F918F910F900FBE0F90C4
:100510001F9018951F920F920FB60F9211242F93D0
:100520003F938F939F93AF93BF93399B0EC080915E
:100530006800909169009093C3018093C2018091FB
:1005400071008F7B809371001EC080916800909134
:1005500069002091C2013091C301821B930BA0E07E
:10056000B0E08093360190933701A0933801B093A7
:100570003901809171008064809371008091BC0189
:1005800080648093BC0189B7886089BF80913A01FB
:1005900090913B01A0913C01B0913D0180933201CB
:1005A00090933301A0933401B0933501BF91AF9183
:1005B0009F918F913F912F910F900FBE0F901F90A1
:1005C00018951F920F920FB60F9211242F933F93FD
:1005D0004F935F936F937F938F939F93AF93BF934B
:1005E000EF93FF938091C501813061F1813020F05C
:1005F000823009F04FC03CC08091BC0181FF08C02F
:10060000809128018093730081E08093C60117C018
:100610008DE791E00E94D601882331F08091780027
:100620008F7D8093780036C08DE791E00E94DC01D9
:10063000809373008DE791E00E94E30182E0809354
:10064000C50128C08091C601E82FF0E0E85DFE4FAB
:100650009081909373008F5F8093C6018430D1F4B2
:100660001092C5018091BC018D7F8093BC0112C0A6
:100670008DE791E00E94DC018E3711F41092C501E4
:100680008DE791E00E94DC01809373008DE791E09B
:100690000E94E301FF91EF91BF91AF919F918F91E4
:1006A0007F916F915F914F913F912F910F900FBE6E
:1006B0000F901F9018951F920F920FB60F92112452
:1006C0002F933F934F935F936F937F938F939F935A
:1006D000AF93BF93EF93FF938091C401882319F0E8
:1006E000823049F517C08EE391E00E94D60188233D
:1006F00021F085B58F7D85BD1EC08EE391E00E94FF
:10070000DC0180BD8EE391E00E94E30182E08093F2
:10071000C40111C08EE391E00E94DC018E3711F418
:100720001092C4018EE391E00E94DC0180BD8EE353
:1007300091E00E94E301FF91EF91BF91AF919F91F2
:100740008F917F916F915F914F913F912F910F907A
:100750000FBE0F901F9018951F920F920FB60F9219
:1007600011248F939F93EF93FF9396B580B59C715F
:1007700041F08091BC018F7E8093BC0110922C01CE
:100780004CC09091BC0194FD48C09091C80191303B
:1007900031F0913088F1923009F03FC00EC08E37B1
:1007A000E1F190912C01E92FF0E0E050FF4F8083C0
:1007B0009F5F90932C0182E02EC08E3791F4909130
:1007C000BC0190619093BC0190912C01E92FF0E065
:1007D000E050FF4F80839F5F90932C011092C801DF
:1007E0001CC090912C01E92FF0E0E050FF4F808376
:1007F0009F5F90932C0111C08E3779F410922C01D9
:1008000090912C01E92FF0E0E050FF4F80839F5F33
:1008100090932C0181E08093C801FF91EF919F910B
:100820008F910F900FBE0F901F9018951F920F92EF
:100830000FB60F9211248F939F93EF93FF9396B56A
:1008400080B59C7141F08091BC018F7D8093BC018B
:1008500010922D017BC09091BC0195FD77C09091C5
:10086000BC0193FD73C09091C701923011F1933098
:1008700030F4992389F1913009F068C007C09330B2
:1008800009F440C0943009F061C04CC08E3709F4BF
:100890005DC090912D01933150F490912D01E92F7D
:1008A000F0E0EC5EFE4F80839F5F90932D0182E02D
:1008B00036C08E3709F040C09091BC019062909391
:1008C000BC0190912D01E92FF0E0EC5EFE4F80839A
:1008D0009F5F90932D012DC08E3771F410922D01E2
:1008E00090912D01E92FF0E0EC5EFE4F80839F5F39
:1008F00090932D0181E013C08B3141F510922D01B1
:1009000083E00DC08B3111F190912D01E92FF0E0C2
:10091000EC5EFE4F80839F5F90932D0184E0809377
:10092000C70114C08B3141F48091BC018860809371
:10093000BC011092C7010AC090912D01E92FF0E08F
:10094000EC5EFE4F80839F5F90932D01FF91EF91AE
:100950009F918F910F900FBE0F901F901895AA1B1B
:10096000BB1B51E107C0AA1FBB1FA617B70710F09A
:10097000A61BB70B881F991F5A95A9F780959095CC
:10098000BC01CD01089597FB092E07260AD077FDFB
:1009900004D0E5DF06D000201AF4709561957F4FF2
:1009A0000895F6F7909581959F4F0895EE0FFF1FDC
:0C09B0000590F491E02D0994F894FFCF1D
:00000001FF
