:100000000C9439000C9456000C9456000C94560035
:100010000C9456000C9456000C944A020C94560012
:100020000C9456000C9456000C9421020C9456002B
:100030000C9456000C9456000C9456000C945600E8
:100040000C943E030C94ED020C9456000C94560054
:100050000C94A8030C946C020C9456000C9456005B
:100060000C9456000C9456000C9456000C945600B8
:100070008E0111241FBECFEFD4E0DEBFCDBF11E053
:10008000A0E0B1E001C01D92A23CB107E1F710E091
:10009000C2E7D0E004C02297FE010E946C04C03782
:1000A000D107C9F70E9458000C9470040C9400000A
:1000B0000F931F93CF93DF9388ED8FBD13BE809175
:1000C000BB0181608093BB010E94DB018BE18093C7
:1000D000280191E09093290180932B0180913801B0
:1000E00090913901A0913A01B0913B010396A11D75
:1000F000B11D80932E0190932F01A0933001B093F6
:1001000031018091380190913901A0913A01B0916B
:100110003B0188519C4FAF4FBF4F8093320190936A
:100120003301A0933401B093350101E010E28091D6
:100130003C01882309F43FC080912E0190912F014A
:10014000A0913001B09131012091380130913901F5
:1001500040913A0150913B0182179307A407B507DC
:1001600050F50496A11DB11D80932E0190932F018F
:10017000A0933001B0933101799B02C080EC01C0A3
:1001800080E49FB190FF8F7B9091BB0191FDFCCFEC
:10019000F8949091BB019E7F9093BB0180932A01BC
:1001A0008091BB0182608093BB0180917800806266
:1001B0008093780078948091320190913301A091DE
:1001C0003401B091350120913801309139014091CD
:1001D0003A0150913B010696A11DB11D821793076C
:1001E000A407B50708F094C0399B92C080917800AD
:1001F000877D809378008C9A10923C018CE791E087
:100200000E949D011BC000933C0180917800886290
:10021000809378008091380190913901A0913A0142
:10022000B0913B010396A11DB11D80932E019093C7
:100230002F01A0933001B09331018C988091BB01C4
:1002400084FF2AC080913C018823F9F08CE791E07B
:100250000E94C401843100F1C0E0D0E009C0FE0179
:10026000E050FF4F60818CE791E00E94C901219628
:1002700080912C0190E0C817D9078CF3F8948091F5
:10028000780080628093780001C0F8948091BB016F
:100290008F7E8093BB0178948091BB0185FF22C043
:1002A0008DE391E00E94C4018431E0F0C0E0D0E031
:1002B00009C0FE01EC5EFE4F60818DE391E00E947B
:1002C000C901219680912D0190E0C817D9078CF3C0
:1002D000F89485B5806285BD8091BB018F7D809348
:1002E000BB0178948091BB0183FF07C0F894809193
:1002F000BB01877F8093BB01789481B3812781BB49
:1003000086B7806186BF889586B78F7E86BF0FCF00
:1003100080913C01882309F476CF90CF8DE391E062
:100320000E9497018CE791E00E9497010895FC01DB
:1003300014AE8BE385AF16AE0895FC0114AE8BE3CB
:1003400085AF16AE0895FC0196AD81E09C3309F0AF
:1003500080E00895FC0196AD81E0911180E0089560
:10036000FC0124AD820F911DFC0180810895FC01E8
:1003700086AD815086AF84AD90E001966CE370E06D
:100380000E94430484AF0895FC0196AD8CE3891B61
:100390000895FC01462F85AD90E001966CE370E076
:1003A0000E94430485AF86AD8F5F86AF85ADE80FB1
:1003B000F11D4083089589E484BF80E886B980B345
:1003C0008C7F80BB82B3836082BB80B38C6780BB31
:1003D00081B3837881BB519A419812BC93E391BD5C
:1003E00016BC86E084BD13BC28E925BD10927500BB
:1003F00090937400109279008093770010927600A9
:1004000080E9809378003999FECF809178008860E8
:100410008093780063986B9A739882E08BBB8AB75D
:1004200081608ABF19BA8CE988BB84E08ABB8AB72D
:1004300088608ABF80917100816480937100789494
:1004400008951F920F920FB60F9211248F939F93CE
:10045000AF93BF938091380190913901A0913A01F7
:10046000B0913B010196A11DB11D8093380190937D
:100470003901A0933A01B0933B0181B390E48927FD
:1004800081BBBF91AF919F918F910F900FBE0F9045
:100490001F9018951F920F920FB60F9211248F93F1
:1004A0009F93AF93BF938091380190913901A091B0
:1004B0003A01B0913B018093320190933301A093B4
:1004C0003401B0933501BF91AF919F918F910F90FF
:1004D0000FBE0F901F9018951F920F920FB60F929C
:1004E00011242F933F934F935F936F937F938F9339
:1004F0009F93AF93BF93EF93FF938091BE018130A1
:1005000081F1813020F0823009F054C040C08091E8
:10051000BB0181FF0BC0809128018093730081E0B3
:100520008093BF018093BE01639846C08CE791E041
:100530000E94AA01882331F0809178008F7D8093FA
:1005400078003AC0639A8CE791E00E94B0018093F2
:1005500073008CE791E00E94B70182E08093BE01B6
:100560002BC08091BF01E82FF0E0E85DFE4F908145
:10057000909373008F5F8093BF018330E9F41092F2
:10058000BE018091BB018D7F8093BB0115C08CE7BC
:1005900091E00E94B0018E3711F41092BE018CE7F9
:1005A00091E00E94B001809373008CE791E00E947B
:1005B000B70102C01092BE01FF91EF91BF91AF91C0
:1005C0009F918F917F916F915F914F913F912F916B
:1005D0000F900FBE0F901F9018951F920F920FB69D
:1005E0000F9211242F933F934F935F936F937F93B9
:1005F0008F939F93AF93BF93EF93FF938091BD0130
:10060000882319F0823049F517C08DE391E00E94EC
:10061000AA01882321F085B58F7D85BD1EC08DE39D
:1006200091E00E94B00180BD8DE391E00E94B7018E
:1006300082E08093BD0111C08DE391E00E94B00182
:100640008E3711F41092BD018DE391E00E94B0014C
:1006500080BD8DE391E00E94B701FF91EF91BF91C2
:10066000AF919F918F917F916F915F914F913F914A
:100670002F910F900FBE0F901F9018951F920F9201
:100680000FB60F9211248F939F93EF93FF9396B51C
:1006900080B59C7141F08091BB018F7E8093BB013E
:1006A00010922C014CC09091BB0194FD48C09091D8
:1006B000C101913031F0913088F1923009F03FC0A2
:1006C0000EC08E37E1F190912C01E92FF0E0E0505F
:1006D000FF4F80839F5F90932C0182E02EC08E3766
:1006E00091F49091BB0190619093BB0190912C018A
:1006F000E92FF0E0E050FF4F80839F5F90932C0143
:100700001092C1011CC090912C01E92FF0E0E05043
:10071000FF4F80839F5F90932C0111C08E3779F437
:1007200010922C0190912C01E92FF0E0E050FF4F46
:1007300080839F5F90932C0181E08093C101FF91A2
:10074000EF919F918F910F900FBE0F901F90189572
:100750001F920F920FB60F9211248F939F93EF93D6
:10076000FF9390917900809173009C7141F080918A
:10077000BB018F7D8093BB0110922D017BC09091B6
:10078000BB0195FD77C09091BB0193FD73C0909123
:10079000C001923011F1933030F4992389F19130F6
:1007A00009F068C007C0933009F440C0943009F0E4
:1007B00061C04CC08E3709F45DC090912D0193311A
:1007C00050F490912D01E92FF0E0EC5EFE4F808314
:1007D0009F5F90932D0182E036C08E3709F040C0B4
:1007E0009091BB0190629093BB0190912D01E92FF4
:1007F000F0E0EC5EFE4F80839F5F90932D012DC053
:100800008E3771F410922D0190912D01E92FF0E0B7
:10081000EC5EFE4F80839F5F90932D0181E013C0BB
:100820008B3141F510922D0183E00DC08B3111F118
:1008300090912D01E92FF0E0EC5EFE4F80839F5FE9
:1008400090932D0184E08093C00114C08B3141F45A
:100850008091BB0188608093BB011092C0010AC0E7
:1008600090912D01E92FF0E0EC5EFE4F80839F5FB9
:1008700090932D01FF91EF919F918F910F900FBE5B
:100880000F901F90189597FB092E07260AD077FD29
:1008900004D00CD006D000201AF4709561957F4FDB
:1008A0000895F6F7909581959F4F0895AA1BBB1B5D
:1008B00051E107C0AA1FBB1FA617B70710F0A61B60
:1008C000B70B881F991F5A95A9F780959095BC0181
:1008D000CD010895EE0FFF1F0590F491E02D0994CE
:0408E000F894FFCFBA
:00000001FF
