:100000000C9439000C9456000C9456000C94560035
:100010000C9456000C9456000C9420020C9456003C
:100020000C9456000C9456000C94F7010C94560056
:100030000C9456000C9456000C9456000C945600E8
:100040000C940D030C94BC020C9456000C945600B6
:100050000C9477030C9442020C9456000C945600B6
:100060000C9456000C9456000C9456000C945600B8
:10007000580111241FBECFEFD4E0DEBFCDBF11E089
:10008000A0E0B1E001C01D92A33CB107E1F710E090
:10009000C2E7D0E004C02297FE010E943904C037B5
:1000A000D107C9F70E9458000C943D040C9400003D
:1000B0001F93CF93DF938091BC0181608093BC013B
:1000C0000E94A5018BE18093280191E09093290182
:1000D00080932B0180913A0190913B01A0913C01CA
:1000E000B0913D010396A11DB11D80932E01909307
:1000F0002F01A0933001B093310180913A0190918A
:100100003B01A0913C01B0913D0188519C4FAF4F04
:10011000BF4F8093320190933301A0933401B09389
:10012000350110E280912E0190912F01A0913001B4
:10013000B091310120913A0130913B0140913C0155
:1001400050913D0182179307A407B50750F5049617
:10015000A11DB11D80932E0190932F01A09330011A
:10016000B0933101799B02C080EC01C080E49FB163
:1001700090FF8F7B9091BC0191FDFCCFF894909102
:10018000BC019E7F9093BC0180932A018091BC01A9
:1001900082608093BC0180917800806280937800B7
:1001A00078948091320190913301A0913401B09103
:1001B000350120913A0130913B0140913C01509131
:1001C0003D010696A11DB11D82179307A407B5072F
:1001D00058F4F89485B5877485BD8091780087744C
:1001E000809378008C9AFFCF8091BC0184FF24C05B
:1001F0008DE791E00E948E018431F0F0C0E0D0E004
:1002000009C0FE01E050FF4F60818DE791E00E9440
:100210009301219680912C0190E0C817D9078CF3A7
:10022000F894809178008062809378008091BC017E
:100230008F7E8093BC0178948091BC0185FF22C0A1
:100240008EE391E00E948E018431E0F0C0E0D0E0C6
:1002500009C0FE01EC5EFE4F60818EE391E00E94DA
:100260009301219680912D0190E0C817D9078CF356
:10027000F89485B5806285BD8091BC018F7D8093A7
:10028000BC0178948091BC0183FF07C0F8948091F1
:10029000BC01877F8093BC01789481B3812781BBA7
:1002A00086B7806186BF889586B78F7E86BF3ACF36
:1002B0008EE391E00E9461018DE791E00E9461016F
:1002C0000895FC0114AE8BE385AF16AE0895FC01D2
:1002D00014AE8BE385AF16AE0895FC0196AD81E0B8
:1002E0009C3309F080E00895FC0196AD81E0911106
:1002F00080E00895FC0124AD820F911DFC018081F6
:100300000895FC0186AD815086AF84AD90E00196E2
:100310006CE370E00E94100484AF0895FC0196AD78
:100320008CE3891B0895FC01462F85AD90E0019672
:100330006CE370E00E94100485AF86AD8F5F86AFDE
:1003400085ADE80FF11D4083089589E484BF80E8FE
:1003500086B980B38C7F80BB82B3836082BB80B35D
:100360008C6780BB81B3837881BB519A419882E0CE
:100370008BBB8091BC018F7B8093BC012CE994E006
:100380003999FECF19BA28BB9ABB89B780FFFDCF38
:10039000399B05C08091BC0180648093BC011ABA6E
:1003A00089B789BF8091BC0186FFEACF12BC3CE0CF
:1003B00031BD82E086BD26E024BD13BC98E995BD21
:1003C0001092750030937400809379002093770029
:1003D00010927600909378008BBB8AB781608ABFB9
:1003E00019BA8EE488BB83E08ABB789408951F9283
:1003F0000F920FB60F9211248F939F93AF93BF93D9
:1004000080913A0190913B01A0913C01B0913D0156
:100410000196A11DB11D80933A0190933B01A093D9
:100420003C01B0933D0181B390E4892781BBBF912A
:10043000AF919F918F910F900FBE0F901F901895C5
:100440001F920F920FB60F9211248F939F93AF9329
:10045000BF9380913A0190913B01A0913C01B091F2
:100460003D018093320190933301A0933401B09306
:100470003501BF91AF919F918F910F900FBE0F905B
:100480001F9018951F920F920FB60F9211242F9361
:100490003F934F935F936F937F938F939F93AF930C
:1004A000BF93EF93FF938091BF01813061F1813061
:1004B00020F0823009F04FC03CC08091BC0181FF28
:1004C00008C0809128018093730081E08093C0016F
:1004D00017C08DE791E00E947401882331F080916C
:1004E00078008F7D8093780036C08DE791E00E9480
:1004F0007A01809373008DE791E00E94810182E090
:100500008093BF0128C08091C001E82FF0E0E85D32
:10051000FE4F9081909373008F5F8093C001843071
:10052000D1F41092BF018091BC018D7F8093BC01FA
:1005300012C08DE791E00E947A018E3711F410927B
:10054000BF018DE791E00E947A01809373008DE7EF
:1005500091E00E948101FF91EF91BF91AF919F9136
:100560008F917F916F915F914F913F912F910F905C
:100570000FBE0F901F9018951F920F920FB60F92FB
:1005800011242F933F934F935F936F937F938F9398
:100590009F93AF93BF93EF93FF938091BE01882306
:1005A00019F0823049F517C08EE391E00E94740182
:1005B000882321F085B58F7D85BD1EC08EE391E037
:1005C0000E947A0180BD8EE391E00E94810182E069
:1005D0008093BE0111C08EE391E00E947A018E37B4
:1005E00011F41092BE018EE391E00E947A0180BD69
:1005F0008EE391E00E948101FF91EF91BF91AF9155
:100600009F918F917F916F915F914F913F912F912A
:100610000F900FBE0F901F9018951F920F920FB65C
:100620000F9211248F939F93EF93FF9396B580B50C
:100630009C7141F08091BC018F7E8093BC0110922F
:100640002C014CC09091BC0194FD48C09091C20116
:10065000913031F0913088F1923009F03FC00EC0F6
:100660008E37E1F190912C01E92FF0E0E050FF4F3F
:1006700080839F5F90932C0182E02EC08E3791F48F
:100680009091BC0190619093BC0190912C01E92F55
:10069000F0E0E050FF4F80839F5F90932C01109219
:1006A000C2011CC090912C01E92FF0E0E050FF4FF7
:1006B00080839F5F90932C0111C08E3779F4109244
:1006C0002C0190912C01E92FF0E0E050FF4F808346
:1006D0009F5F90932C0181E08093C201FF91EF9185
:1006E0009F918F910F900FBE0F901F9018951F92A2
:1006F0000F920FB60F9211248F939F93EF93FF9356
:1007000096B580B59C7141F08091BC018F7D80933E
:10071000BC0110922D017BC09091BC0195FD77C06A
:100720009091BC0193FD73C09091C101923011F181
:10073000933030F4992389F1913009F068C007C0F3
:10074000933009F440C0943009F061C04CC08E373A
:1007500009F45DC090912D01933150F490912D01D9
:10076000E92FF0E0EC5EFE4F80839F5F90932D01B8
:1007700082E036C08E3709F040C09091BC01906293
:100780009093BC0190912D01E92FF0E0EC5EFE4FBB
:1007900080839F5F90932D012DC08E3771F410924E
:1007A0002D0190912D01E92FF0E0EC5EFE4F80834A
:1007B0009F5F90932D0181E013C08B3141F5109222
:1007C0002D0183E00DC08B3111F190912D01E92FA6
:1007D000F0E0EC5EFE4F80839F5F90932D0184E0FC
:1007E0008093C10114C08B3141F48091BC018860B9
:1007F0008093BC011092C1010AC090912D01E92F94
:10080000F0E0EC5EFE4F80839F5F90932D01FF919F
:10081000EF919F918F910F900FBE0F901F901895A1
:1008200097FB092E07260AD077FD04D00CD006D0FE
:1008300000201AF4709561957F4F0895F6F7909512
:1008400081959F4F0895AA1BBB1B51E107C0AA1FAA
:10085000BB1FA617B70710F0A61BB70B881F991F61
:100860005A95A9F780959095BC01CD010895EE0F9A
:0E087000FF1F0590F491E02D0994F894FFCF3E
:00000001FF
