:100000000C9439000C9456000C9456000C94560035
:100010000C9456000C9456000C9456000C94560008
:100020000C9456000C9456000C94E7020C94560065
:100030000C9456000C9456000C9456000C945600E8
:100040000C94E4010C9493010C9456000C9456000B
:100050000C944E020C9419010C9456000C9456000A
:100060000C9456000C9456000C9456000C945600B8
:10007000FE0211241FBECFEFD4E0DEBFCDBF11E0E2
:10008000A0E0B1E001C01D92A23BB107E1F710E092
:10009000C2E7D0E004C02297FE010E946E03C03781
:1000A000D107C9F70E948B000C9472030C940000D6
:1000B00089E684BF80E886B980B38C7F80BB82B339
:1000C000836082BB80B38C6780BB81B3837881BB44
:1000D0008CE090E092BD81BD22E026BD36E034BDCB
:1000E00013BC48E945BD909375008093740020933C
:1000F0007900309377001092760088E18093780041
:100100002BBB8EE488BB8AB781608ABF19BA84E0B2
:100110008ABB78940895CF93DF938091AC0181607E
:100120008093AC010E9458008BE18093280191E0FC
:100130009093290180932B018091AC0180FF1FC017
:10014000799B02C080EC01C080E49FB190FF8F7B5F
:100150009091AC0191FDFCCFF8949091AC019E7F01
:100160009093AC0180932A018091AC0182608093CE
:10017000AC018091780080628093780078948091BF
:10018000AC0184FF24C08DE691E00E942E038431EF
:10019000F0F0C0E0D0E009C0FE01E050FF4F608108
:1001A0008DE691E00E943303219680912C0190E02E
:1001B000C817D9078CF3F8948091780080628093F7
:1001C00078008091AC018F7E8093AC01789480910F
:1001D000AC0185FF22C08EE291E00E942E038431A3
:1001E000E0F0C0E0D0E009C0FE01EC5EFE4F6081AF
:1001F0008EE291E00E943303219680912D0190E0E0
:10020000C817D9078CF3F89485B5806285BD8091B5
:10021000AC018F7D8093AC0178948091AC0183FF19
:100220008BCFF8948091AC01877F8093AC01789458
:1002300083CF1F920F920FB60F9211242F933F93EB
:100240004F935F936F937F938F939F93AF93BF93DE
:10025000EF93FF938091B001813061F1813020F004
:10026000823009F04FC03CC08091AC0181FF08C0D2
:10027000809128018093730081E08093B10117C0C1
:100280008DE691E00E941403882331F0809178007C
:100290008F7D8093780036C08DE691E00E941A032E
:1002A000809373008DE691E00E94210382E08093A9
:1002B000B00128C08091B101E82FF0E0E85DFE4F69
:1002C0009081909373008F5F8093B1018430D1F45B
:1002D0001092B0018091AC018D7F8093AC0112C06F
:1002E0008DE691E00E941A038E3711F41092B0014E
:1002F0008DE691E00E941A03809373008DE691E0F1
:100300000E942103FF91EF91BF91AF919F918F9137
:100310007F916F915F914F913F912F910F900FBE01
:100320000F901F9018951F920F920FB60F921124E5
:100330002F933F934F935F936F937F938F939F93ED
:10034000AF93BF93EF93FF938091AF01882319F090
:10035000823049F517C08EE291E00E941403882391
:1003600021F085B58F7D85BD1EC08EE291E00E9493
:100370001A0380BD8EE291E00E94210382E0809307
:10038000AF0111C08EE291E00E941A038E3711F482
:100390001092AF018EE291E00E941A0380BD8EE2BE
:1003A00091E00E942103FF91EF91BF91AF919F9146
:1003B0008F917F916F915F914F913F912F910F900E
:1003C0000FBE0F901F9018951F920F920FB60F92AD
:1003D00011248F939F93EF93FF9396B580B59C71F3
:1003E00041F08091AC018F7E8093AC0110922C0182
:1003F0004CC09091AC0194FD48C09091AE019130F9
:1004000031F0913088F1923009F03FC00EC08E3744
:10041000E1F190912C01E92FF0E0E050FF4F808353
:100420009F5F90932C0182E02EC08E3791F49091C3
:10043000AC0190619093AC0190912C01E92FF0E018
:10044000E050FF4F80839F5F90932C011092AE018C
:100450001CC090912C01E92FF0E0E050FF4F808309
:100460009F5F90932C0111C08E3779F410922C016C
:1004700090912C01E92FF0E0E050FF4F80839F5FC7
:1004800090932C0181E08093AE01FF91EF919F91B9
:100490008F910F900FBE0F901F9018951F920F9283
:1004A0000FB60F9211248F939F93EF93FF9396B5FE
:1004B00080B59C7141F08091AC018F7D8093AC013F
:1004C00010922D017BC09091AC0195FD77C0909169
:1004D000AC0193FD73C09091AD01923011F1933056
:1004E00030F4992389F1913009F068C007C0933046
:1004F00009F440C0943009F061C04CC08E3709F453
:100500005DC090912D01933150F490912D01E92F10
:10051000F0E0EC5EFE4F80839F5F90932D0182E0C0
:1005200036C08E3709F040C09091AC019062909334
:10053000AC0190912D01E92FF0E0EC5EFE4F80833D
:100540009F5F90932D012DC08E3771F410922D0175
:1005500090912D01E92FF0E0EC5EFE4F80839F5FCC
:1005600090932D0181E013C08B3141F510922D0144
:1005700083E00DC08B3111F190912D01E92FF0E056
:10058000EC5EFE4F80839F5F90932D0184E080930B
:10059000AD0114C08B3141F48091AC01886080932F
:1005A000AC011092AD010AC090912D01E92FF0E04D
:1005B000EC5EFE4F80839F5F90932D01FF91EF9142
:1005C0009F918F910F900FBE0F901F9018951F92C3
:1005D0000F920FB60F9211248F939F938091AC01CD
:1005E00081608093AC0181B390E4892781BB9F91A6
:1005F0008F910F900FBE0F901F9018958EE291E093
:100600000E9407038DE691E00E9407030895FC0114
:1006100014AE8BE385AF16AE0895FC0196AD81E074
:100620009C3309F080E00895FC0196AD81E09111C2
:1006300080E00895FC0124AD820F911DFC018081B2
:100640000895FC0186AD815086AF84AD90E001969F
:100650006CE370E00E94450384AF0895FC0196AD01
:100660008CE3891B0895FC01462F85AD90E001962F
:100670006CE370E00E94450385AF86AD8F5F86AF67
:1006800085ADE80FF11D4083089597FB092E0726DD
:100690000AD077FD04D00CD006D000201AF4709553
:1006A00061957F4F0895F6F7909581959F4F089536
:1006B000AA1BBB1B51E107C0AA1FBB1FA617B70788
:1006C00010F0A61BB70B881F991F5A95A9F78095A4
:1006D0009095BC01CD010895EE0FFF1F0590F49198
:0806E000E02D0994F894FFCF0E
:00000001FF
