:100000000C943B000C9463000C9463000C9463000C
:100010000C9463000C9463000C9448010C946300EE
:100020000C9463000C9463000C940D010C94630019
:100030000C9463000C9463000C9463000C946300B4
:100040000C940B030C94D1010C9463000C9463008A
:100050000C94AB020C9456020C9463000C94630055
:100060000C9463000C9463000C9463000C94630084
:100070000C946300A10511241FBECFEFD2E0DEBFB8
:10008000CDBF11E0A0E0B1E0E2EBFBE002C00590E3
:100090000D92A230B107D9F711E0A2E0B1E001C0A2
:1000A0001D92A53DB107E1F710E0C6E7D0E004C01E
:1000B0002297FE010E94D305C437D107C9F70E94D9
:1000C000E7030C94D7050C94000090E0FC01E0508D
:1000D000FF4F6083509100014091010121E030E029
:1000E000541711F020E030E02817390721F08091F3
:1000F00007018F5F03C08091070181508093070142
:100100000895FC0114AE8BE385AF16AE0895FC0193
:1001100014AE8BE385AF16AE0895FC0196AD81E079
:100120009C3309F080E00895FC0196AD81E09111C7
:1001300080E00895FC0124ADE20FF11D8081089557
:10014000FC0186AD815086AF84AD90E001966CE3F2
:1001500070E00E94BD0584AF0895FC0196AD8CE36C
:10016000891B0895FC01262F85AD90E001966CE374
:1001700070E00E94BD0585AF86AD8F5F86AF85AD0F
:10018000E80FF11D2083089589E484BF80E886B9D3
:1001900080B38C7F80BB82B3836082BB80B38C676B
:1001A00080BB81B3837881BB459A519A419812BC38
:1001B00093E391BD16BC86E084BD13BC20E925BD48
:1001C00010927500909374001092790080937700DC
:1001D0001092760088E980937800639A6B9A7398FE
:1001E00088B18A7E88B98AB185618AB989B1856109
:1001F00089B982E08BBB8AB781608ABF19BA8CE962
:1002000088BB84E08ABB8AB788608ABFE1E7F0E0F8
:10021000808181608083789408951F920F920FB639
:100220000F9211248F939F93AF93BF938091C70137
:100230009091C801A091C901B091CA010196A11D78
:10024000B11D8093C7019093C801A093C901B093D9
:10025000CA0181B390E4892781BBBF91AF919F917F
:100260008F910F900FBE0F901F9018950F931F93B3
:100270008FB7F8940091C7011091C8012091C9016E
:100280003091CA018FBFB801C9011F910F91089524
:100290001F920F920FB60F9211242F933F934F93FB
:1002A0005F936F937F938F939F93AF93BF93EF93DE
:1002B000FF930E94360160939001709391018093A7
:1002C0009201909393018091CB018F5F8093CB013A
:1002D000853608F455C080918901811146C050C00F
:1002E00009B607FE08C0809171008F7B8093710072
:1002F00089B7886838C080916800909169009093B0
:10030000CD018093CC01209171002F7B209371004F
:1003100029B7286029BF2091CE013091CF01821BDF
:10032000930B90938F0180938E0180918E01909119
:100330008F018436994120F580918E0190918F0133
:100340008D3B9240D0F41CC0809168009091690070
:100350009093CF018093CE0180917100806480934F
:10036000710089B7886089BF0BC085E68093CB0197
:100370008091710086FDB4CFE7CF81E08093880142
:10038000FF91EF91BF91AF919F918F917F916F916D
:100390005F914F913F912F910F900FBE0F901F9043
:1003A00018951F920F920FB60F9211242F933F931F
:1003B0004F935F936F937F938F939F93AF93BF936D
:1003C000EF93FF938091D0018130A9F120F082302A
:1003D00009F059C046C0A99B10C006B406FEFDCF67
:1003E000639A86B5806486BD1092D10180919A018E
:1003F00080BD81E08093D1011BC08AE091E00E9422
:100400009400882321F085B58F7D85BD3EC006B45C
:1004100006FEFDCF639886B5806486BD8AE091E0D4
:100420000E949A0080BD8AE091E00E94A00082E0D4
:100430008093D0012AC09091D101E92FF0E0E656D7
:10044000FE4F808180BD9F5F9093D101AF9B02C022
:1004500085E001C083E0981318C01092D001A998DC
:1004600014C08AE091E00E949A008E3711F4109235
:10047000D0018AE091E00E949A0080BD8AE091E07C
:100480000E94A00002C01092D001FF91EF91BF9195
:10049000AF919F918F917F916F915F914F913F911C
:1004A0002F910F900FBE0F901F9018951F920F92D3
:1004B0000FB60F9211242F933F934F935F936F9337
:1004C0007F938F939F93AF93BF93EF93FF9380910D
:1004D000D201882319F0823069F51AC089E491E0CD
:1004E0000E949400882331F0809178008F7D809362
:1004F000780020C089E491E00E949A008093730004
:1005000089E491E00E94A00082E08093D20112C0B1
:1005100089E491E00E949A008E3711F41092D20182
:1005200089E491E00E949A008093730089E491E04D
:100530000E94A000FF91EF91BF91AF919F918F9189
:100540007F916F915F914F913F912F910F900FBECF
:100550000F901F9018951F920F920FB60F921124B3
:100560008F939F93EF93FF93909179008091730005
:100570009C7121F0AB981092990144C0AB9942C094
:100580009091D301913021F060F19230D9F50EC0F5
:100590008E37C1F190919901E92FF0E0ED54FE4FB3
:1005A00080839F5F9093990182E02AC08E3771F417
:1005B000AB9A90919901E92FF0E0ED54FE4F8083C2
:1005C0009F5F909399011092D3011CC09091990163
:1005D000E92FF0E0ED54FE4F80839F5F90939901E7
:1005E00011C08E3779F41092990190919901E92FF9
:1005F000F0E0ED54FE4F80839F5F9093990181E07E
:100600008093D301FF91EF919F918F910F900FBE37
:100610000F901F9018951F920F920FB60F921124F2
:100620008F939F93EF93FF9396B580B59C7121F0C4
:10063000AC98109298016CC0AC996AC0AA9B59C042
:1006400067C08E3709F464C090919801933150F4DB
:1006500090919801E92FF0E0E156FE4F80839F5F73
:100660009093980182E01DC08E37C1F5AC9A9091AD
:100670009801E92FF0E0E156FE4F80839F5F909351
:10068000980129C08E3781F41092980190919801B9
:10069000E92FF0E0E156FE4F80839F5F9093980131
:1006A00081E08093D40134C08B3191F51092980190
:1006B00083E0F7CF8B3161F190919801E92FF0E061
:1006C000E156FE4F80839F5F9093980184E0E9CFCD
:1006D0008B3121F4AA9A1092D4011AC090919801FA
:1006E000E92FF0E0E156FE4F80839F5F90939801E1
:1006F0000FC09091D401923009F4B6CF28F4992319
:1007000009F2913029F49DCF9330A1F2943001F396
:10071000FF91EF919F918F910F900FBE0F901F90BF
:10072000189582B38C6082BB81B3837F81BB829832
:10073000839808959FB181E0911101C080E00895F0
:10074000839A8DE08A95F1F70000829A8DE08A9570
:10075000F1F70000089582988DE08A95F1F7000086
:100760008398089598E087FF02C0839801C0839A18
:10077000880F829825E02A95F1F70000829A91501F
:1007800091F782987A9BFECF829A839A0895880F78
:1007900081600C94B203880F0C94B203282F8398C5
:1007A00098E080E0880F829832E03A95F1F700C037
:1007B0007B998160829A9150A9F72111839A82983E
:1007C00095E09A95F1F70000829A839A089588ED52
:1007D0008FBD13BEA89A0E94C4000E9491038BE1B2
:1007E00080939A0181E080939B010E9436016D5FA6
:1007F0007F4F8F4F9F4F609394017093950180932B
:100800009601909397010E94360168517C4F8F4F5B
:100810009F4F609390017093910180939201909308
:10082000930111E0FF24FA94C2E3D0E000E233E048
:10083000E32E80918901882361F18090940190904A
:100840009501A0909601B09097010E9436018616FE
:100850009706A806B90608F428C11BC080E4789B57
:100860008F7BA999FECFF894A89880939C01AF9BA9
:100870000BC08091070180939D013C9B03C01092A7
:100880009E0102C010939E01A99A85B5806285BD24
:1008900078948090900190909101A0909201B090F6
:1008A00093010E94360126E0820E911CA11CB11C0E
:1008B00086169706A806B90608F027C139990CC113
:1008C00024C180908A0190908B01A0908C01B090FF
:1008D0008D010E94360186169706A806B90608F40F
:1008E00019C1AD9B17C1809188018823A9F1F894A3
:1008F000109288017894809109018F5F809309019B
:10090000803251F510920901F89480918E019091F6
:100910008F01789423E0969587952A95E1F7BE019B
:100920000E94A905982F92509F32B0F48C9A893179
:1009300091F040F0809163008F3F69F080916300F7
:100940008F5F07C080916300882329F08091630046
:100950008150809363008C98AB9B22C08091890169
:100960008823D9F08AE091E00E94AD008431C0F084
:10097000F894B12C0AC0EB2DF0E0ED54FE4F6081ED
:100980008AE091E00E94B200B39480919901B81678
:1009900090F385B5806285BD01C0F894AB987894DA
:1009A000AC9B1EC089E491E00E94AD008431C0F090
:1009B000F894B12C0AC0EB2DF0E0E156FE4F6081B7
:1009C00089E491E00E94B200B39480919801B81636
:1009D00090F380917800806280937800AC9878944E
:1009E000AA9B03C0F894AA98789481B3802781BB0E
:1009F000AE9926C00E9436018090020190900301BA
:100A0000A0900401B090050186169706A806B906C5
:100A1000B8F4D501C4014996A11DB11D809302010E
:100A200090930301A0930401B093050129B12027FD
:100A300029B9893E9340A105B10510F0AE9A4D98B1
:100A400067B1617087B190910001691711F080E082
:100A500007C0682F647080910101681719F081E068
:100A60000E946500AF9919C00E9436018090020172
:100A700090900301A0900401B0900501861697069E
:100A8000A806B90640F480910701882331F0AF9A97
:100A9000E0929B0102C01092070186B7806186BF79
:100AA000889586B78F7E86BFC4CE80919401909141
:100AB0009501A0919601B09197010496A11DB11DD9
:100AC0008093940190939501A0939601B093970120
:100AD000799BC4CE80ECC3CE85B5877D85BD8C9ACD
:100AE000109289018AE091E00E9487000E943601FD
:100AF0006854744F8F4F9F4F60938A0170938B019E
:100B000080938C0190938D01EECE809189018111AB
:100B1000EACED7CE10938901AD9A85B5886285BD9E
:100B20000E9436016D5F7F4F8F4F9F4F60939401FE
:100B3000709395018093960190939701F0BC8C98E7
:100B4000D2CE89E491E00E9481008AE091E00C9489
:100B50008100AA1BBB1B51E107C0AA1FBB1FA61720
:100B6000B70710F0A61BB70B881F991F5A95A9F756
:100B700080959095BC01CD01089597FB072E16F442
:100B8000009407D077FD09D00E94A90507FC05D085
:100B90003EF4909581959F4F0895709561957F4F94
:100BA0000895EE0FFF1F0590F491E02D0994F8943D
:020BB000FFCF75
:020BB20001013F
:00000001FF
