:100000000C9439000C9456000C9456000C94560035
:100010000C949C030C9456000C94FD020C94560016
:100020000C9456000C9456000C94D4020C94560078
:100030000C9456000C9456000C9456000C945600E8
:100040000C941E050C94E2030C9456000C9456007C
:100050000C94B2040C945D040C9456000C9456005D
:100060000C9456000C9456000C9456000C945600B8
:100070003B0211241FBECFEFD4E0DEBFCDBF11E0A5
:10008000A0E0B1E001C01D92A53DB107E1F710E08D
:10009000C2E7D0E004C02297FE010E943906C037B3
:1000A000D107C9F70E9458000C943D060C9400003B
:1000B000DF92EF92FF920F931F93CF93DF9388ED20
:1000C0008FBD13BE8091C10181608093C1010E94E8
:1000D00088028BE18093280181E08093290180913F
:1000E000390190913A01A0913B01B0913C010396F6
:1000F000A11DB11D80932F0190933001A093310178
:10010000B0933201EE24E39443E0D42EC2E3D0E076
:1001100030E2F32E80914101882309F44CC0809194
:100120002F0190913001A0913101B09132012091C5
:10013000390130913A0140913B0150913C018217C5
:100140009307A407B507B8F50496A11DB11D8093C8
:100150002F0190933001A0933101B0933201799B2C
:1001600002C080EC01C080E49FB190FF8F7B909132
:10017000C10191FDFCCFF8949091C1019E7F9093B5
:10018000C10180932A018091C10187FF0BC080913A
:10019000C50180932B013C9B03C010922C0102C02F
:1001A000E0922C018091C10182608093C10185B5EC
:1001B000806285BD78948091C10187FD0BC08091DC
:1001C000C501882339F08091C10180688093C10105
:1001D000D09229018091330190913401A091350191
:1001E000B09136012091390130913A0140913B01A3
:1001F00050913C010696A11DB11D82179307A407DB
:10020000B50708F032C1399B30C185B5877D85BD02
:100210008C9A1092410182E891E00E944A028091FA
:10022000390190913A01A0913B01B0913C01885471
:10023000944FAF4FBF4F80933D0190933E01A093E9
:100240003F01B093400137C08091390190913A014C
:10025000A0913B01B0913C0120913D0130913E01C4
:1002600040913F0150914001281739074A075B0729
:1002700020F08091C10185FD1EC0E0924101809176
:10028000C10180628093C10185B5886285BD80917E
:10029000390190913A01A0913B01B0913C01039644
:1002A000A11DB11D80932F0190933001A0933101C6
:1002B000B09332018C98809142018823B1F1F89477
:1002C0001092420178948091C2018F5F8093C201A5
:1002D000803259F51092C201F894809137019091C3
:1002E0003801789423E0969587952A95E1F7BE0129
:1002F0000E941006982F92509F32B8F48C9A893140
:1003000099F08A3140F0809163008F3F69F08091CD
:1003100063008F5F07C080916300882329F080917C
:1003200063008150809363008C988091C10183FFAA
:1003300029C0809141018823F1F082E891E00E9478
:1003400071028431F8F000E010E00AC0F801E050DA
:10035000FF4F608182E891E00E9476020F5F1F4F9D
:1003600080912D0190E00817190784F3F89485B562
:10037000806285BD01C0F8948091C101877F809320
:10038000C10178948091C10184FF25C083E491E08C
:100390000E9471028431F8F000E010E00AC0F80118
:1003A000EC5EFE4F608183E491E00E9476020F5F75
:1003B0001F4F80912E0190E00817190784F3F894DD
:1003C000809178008062809378008091C1018F7E57
:1003D0008093C10178948091C10182FF07C0F89495
:1003E0008091C1018B7F8093C101789481B38F2567
:1003F00081BB8091C10186FD30C0209139013091CF
:100400003A0140913B0150913C018091C70190918C
:10041000C801A091C901B091CA0182179307A4072E
:10042000B507D8F44996A11DB11D8093C7019093DB
:10043000C801A093C901B093CA0129B12F2529B9D8
:10044000893E23E0920720E0A20720E0B20728F0CF
:100450008091C10180648093C10186B7806186BFAD
:10046000889586B78F7E86BF55CE809141018823BF
:1004700009F4EACE20CF83E491E00E94440282E8AE
:1004800091E00E9444020895FC0114AE8BE385AF15
:1004900016AE0895FC0114AE8BE385AF16AE089539
:1004A000FC0196AD81E09C3309F080E00895FC01E9
:1004B00096AD81E0911180E00895FC0124AD820F9A
:1004C000911DFC0180810895FC0186AD815086AFAD
:1004D00084AD90E001966CE370E00E94240684AF46
:1004E0000895FC0196AD8CE3891B0895FC01462F0D
:1004F00085AD90E001966CE370E00E94240685AF24
:1005000086AD8F5F86AF85ADE80FF11D40830895FE
:1005100089E484BF80E886B980B38C7F80BB82B3D6
:10052000836082BB80B38C6780BB81B3837881BBDF
:10053000459A519A419812BC93E391BD16BC86E04E
:1005400084BD13BC28E925BD1092750090937400FA
:1005500010927900809377001092760080E9809362
:10056000780063986B9A739888B18A7E88B98AB14B
:1005700085618AB989B58A6089BD8CB780628CBF74
:1005800082E08BBB8AB781608ABF19BA8CE988BBCD
:1005900084E08ABB8AB788608ABFE1E7F0E08081A7
:1005A00081608083789408951F920F920FB60F9206
:1005B00011248F939F93AF93BF93809139019091B2
:1005C0003A01A0913B01B0913C010196A11DB11DE2
:1005D0008093390190933A01A0933B01B0933C0181
:1005E00081B390E4892781BBBF91AF919F918F9197
:1005F0000F900FBE0F901F9018951F920F920FB67D
:100600000F9211242F933F938F939F93AF93BF9398
:100610008091390190913A01A0913B01B0913C0148
:100620008093330190933401A0933501B093360148
:100630008091CB018F5F8093CB01853608F455C044
:1006400080914101882309F450C085E68093CB0155
:100650008091710086FF39C009B607FE08C08091FD
:1006600071008F7B8093710089B788683DC080914D
:100670006800909169009093CD018093CC01209106
:1006800071002F7B2093710029B7286029BF20912A
:10069000CE013091CF01821B930B90933801809350
:1006A0003701809137019091380129E18436920712
:1006B000E0F4809137019091380122E08D3B920760
:1006C000A0F081E08093420110C080916800909179
:1006D00069009093CF018093CE0180917100806476
:1006E0008093710089B7886089BFBF91AF919F9156
:1006F0008F913F912F910F900FBE0F901F901895E3
:1007000090E0FC01ED53FE4F60835091C301409196
:10071000C40121E030E0541711F020E030E0281748
:10072000390721F08091C5018F5F03C08091C50119
:1007300081508093C501089578941F920F920FB64F
:100740000F9211242F933F934F935F936F937F9357
:100750008F939F93AF93BF93EF93FF938091C601C5
:100760008823F9F481E08093C6018FEC97E001972C
:10077000F1F700C00000F89467B1617087B1909103
:10078000C301691711F080E007C0682F6470809181
:10079000C401681719F081E00E9480031092C6011D
:1007A0007894FF91EF91BF91AF919F918F917F913D
:1007B0006F915F914F913F912F910F900FBE0F90CE
:1007C0001F9018951F920F920FB60F9211242F931E
:1007D0003F934F935F936F937F938F939F93AF93C9
:1007E000BF93EF93FF938091D101813061F181300C
:1007F00020F0823009F04EC03BC08091C10181FFE2
:100800000AC08091280180BD81E08093D20180934D
:10081000D101639841C082E891E00E945702882389
:1008200021F085B58F7D85BD37C0639A82E891E060
:100830000E945D0280BD82E891E00E94640282E035
:100840008093D10129C08091D201E82FF0E0E85DCA
:10085000FE4F908190BD8F5F8093D2018530E1F48F
:100860001092D1018091C1018D7F8093C10114C08C
:1008700082E891E00E945D028E3711F41092D1015E
:1008800082E891E00E945D0280BD82E891E00E94D2
:10089000640202C01092D101FF91EF91BF91AF911C
:1008A0009F918F917F916F915F914F913F912F9188
:1008B0000F900FBE0F901F9018951F920F920FB6BA
:1008C0000F9211242F933F934F935F936F937F93D6
:1008D0008F939F93AF93BF93EF93FF938091D0013A
:1008E000882319F0823069F51AC083E491E00E94F0
:1008F0005702882331F0809178008F7D80937800B3
:1009000020C083E491E00E945D028093730083E441
:1009100091E00E94640282E08093D00112C083E4DF
:1009200091E00E945D028E3711F41092D00183E4B1
:1009300091E00E945D028093730083E491E00E9445
:100940006402FF91EF91BF91AF919F918F917F9141
:100950006F915F914F913F912F910F900FBE0F902C
:100960001F9018951F920F920FB60F9211248F931C
:100970009F93EF93FF9390917900809173009C7106
:1009800041F08091C101877F8093C10110922D01B8
:100990004CC09091C10193FD48C09091D401913019
:1009A00031F0913088F1923009F03FC00EC08E379F
:1009B000E1F190912D01E92FF0E0E050FF4F8083AD
:1009C0009F5F90932D0182E02EC08E3791F490911D
:1009D000C10198609093C10190912D01E92FF0E041
:1009E000E050FF4F80839F5F90932D011092D401C0
:1009F0001CC090912D01E92FF0E0E050FF4F808363
:100A00009F5F90932D0111C08E3779F410922D01C4
:100A100090912D01E92FF0E0E050FF4F80839F5F20
:100A200090932D0181E08093D401FF91EF919F91EC
:100A30008F910F900FBE0F901F9018951F920F92DD
:100A40000FB60F9211248F939F93EF93FF9396B558
:100A500080B59C7141F08091C1018F7E8093C1016E
:100A600010922E017BC09091C10194FD77C09091AE
:100A7000C10192FD73C09091D301923011F1933076
:100A800030F4992389F1913009F068C007C09330A0
:100A900009F440C0943009F061C04CC08E3709F4AD
:100AA0005DC090912E01933150F490912E01E92F69
:100AB000F0E0EC5EFE4F80839F5F90932E0182E01A
:100AC00036C08E3709F040C09091C101906190937B
:100AD000C10190912E01E92FF0E0EC5EFE4F808382
:100AE0009F5F90932E012DC08E3771F410922E01CE
:100AF00090912E01E92FF0E0EC5EFE4F80839F5F26
:100B000090932E0181E013C08B3141F510922E019C
:100B100083E00DC08B3111F190912E01E92FF0E0AF
:100B2000EC5EFE4F80839F5F90932E0184E0809364
:100B3000D30114C08B3141F48091C1018460809352
:100B4000C1011092D3010AC090912E01E92FF0E06B
:100B5000EC5EFE4F80839F5F90932E01FF91EF919B
:100B60009F918F910F900FBE0F901F90189582B399
:100B70008C6082BB81B3837F81BB82988398089508
:100B80009FB181E0992309F480E00895839A8DE074
:100B90008A95F1F70000829A8DE08A95F1F70000BE
:100BA000089582988DE08A95F1F700008398089562
:100BB00098E087FF02C0839801C0839A829825E05D
:100BC0002A95F1F70000829A915011F0880FF1CF29
:100BD00082987A9BFECF829A839A0895880F8160CB
:100BE0000E94D8050895880F0E94D8050895282FDF
:100BF000839898E080E0880F829832E03A95F1F788
:100C000000C07B998160829A9150A9F72111839A43
:100C1000829895E09A95F1F70000829A839A089558
:100C2000AA1BBB1B51E107C0AA1FBB1FA617B70712
:100C300010F0A61BB70B881F991F5A95A9F780952E
:100C40009095BC01CD01089597FB092E07260AD087
:100C500077FD04D0E5DF06D000201AF47095619589
:100C60007F4F0895F6F7909581959F4F0895EE0F69
:0E0C7000FF1F0590F491E02D0994F894FFCF3A
:00000001FF
