:100000000C943B000C9463000C9463000C9463000C
:100010000C9463000C9463000C949E010C94630098
:100020000C9463000C9463000C9463010C946300C3
:100030000C9463000C9463000C9463000C946300B4
:100040000C94B6030C9424020C9463000C9463008B
:100050000C9441030C94A9020C9463000C9463006B
:100060000C9463000C9463000C9463000C94630084
:100070000C946300D50611241FBECFEFD2E0DEBF83
:10008000CDBF11E0A0E0B1E0EAE1FEE002C00590E2
:100090000D92A230B107D9F711E0A2E0B1E001C0A2
:1000A0001D92AE3DB107E1F710E0C6E7D0E004C015
:1000B0002297FE010E940707C437D107C9F70E94A3
:1000C00092040C940B070C94000090E0FC01E050AB
:1000D000FF4F6083509100014091010121E030E029
:1000E000541711F020E030E02817390721F08091F3
:1000F0000F018F5F03C080910F01815080930F012A
:100100000895FC0114AE8BE385AF16AE0895FC0193
:1001100014AE8BE385AF16AE0895FC0196AD81E079
:100120009C3309F080E00895FC0196AD81E09111C7
:1001300080E00895FC0124ADE20FF11D8081089557
:10014000FC0186AD815086AF84AD90E001966CE3F2
:1001500070E00E94F10684AF0895FC0196AD8CE337
:10016000891B0895FC01262F85AD90E001966CE374
:1001700070E00E94F10685AF86AD8F5F86AF85ADDA
:10018000E80FF11D2083089589E484BF80E886B9D3
:1001900080B38C7F80BB82B3836082BB80B38C676B
:1001A00080BB81B3837881BB459A519A4198109264
:1001B000750083E3809374001092790086E0809349
:1001C00077001092760088E9809378002FE789EA1B
:1001D00093E0215080409040E1F700C000008EE79E
:1001E000809373008091790085FFFCCF89EF809325
:1001F000730088E09091790095FFFCCF1092730016
:100200008150C1F78091790085FFFCCF8EE7809304
:10021000730082E08BBB8AB781608ABF19BA8BEE0C
:1002200088BB85E08ABB89B7816089BFA89809C06F
:100230008091790087FF05C0809173008E3709F4A3
:10024000A89A09B600FEF4CFA8990EC012BC90E19E
:1002500091BD82E086BD1092780010927500909357
:100260007400809379000CC012BC83E381BD16BC7E
:1002700010927800109275008093740010927900AB
:1002800096E094BD13BC88E985BD909377001092E9
:10029000760080937800639A6B9A739888B18A7E0F
:1002A00088B98AB185618AB989B1856189B982E0E5
:1002B0008BBB8AB781608ABF19BA8DE788BB83E0A0
:1002C0008ABB789408951F920F920FB60F92112453
:1002D0008F939F93AF93BF938091CF019091D00163
:1002E000A091D101B091D2010196A11DB11D8093C1
:1002F000CF019093D001A093D101B093D20181B3EB
:1003000090E4892781BBBF91AF919F918F910F900E
:100310000FBE0F901F9018950F931F938FB7F894EF
:100320000091CF011091D0012091D1013091D201E3
:100330008FBFB801C9011F910F9108951F920F92AD
:100340000FB60F9211242F933F934F935F936F93A8
:100350007F938F939F93AF93BF93EF93FF930E94ED
:100360008C01609398017093990180939A01909306
:100370009B018091D3018F5F8093D301853608F470
:1003800052C080919101811143C04DC009B607FE52
:1003900007C0809171008F7B8093710088E836C020
:1003A00080916800909169009093D5018093D40169
:1003B000209171002F7B2093710028E029BF2091AC
:1003C000D6013091D701821B930B909397018093B4
:1003D000960180919601909197018436994118F584
:1003E00080919601909197018D3B9240C8F41BC07B
:1003F00080916800909169009093D7018093D60115
:100400008091710080648093710088E089BF0BC087
:1004100085E68093D3018091710086FDB7CFE8CF48
:1004200081E080939001FF91EF91BF91AF919F91F7
:100430008F917F916F915F914F913F912F910F908D
:100440000FBE0F901F9018951F920F920FB60F922C
:1004500011242F933F934F935F936F937F938F93C9
:100460009F93AF93BF93EF93FF938091D801813017
:10047000A9F120F0823009F059C046C0A99B10C0F4
:1004800006B406FEFDCF639A86B5806486BD1092E1
:10049000D9018091A20180BD81E08093D9011BC068
:1004A00081E191E00E949400882321F085B58F7D41
:1004B00085BD3EC006B406FEFDCF639886B5806458
:1004C00086BD81E191E00E949A0080BD81E191E0CA
:1004D0000E94A00082E08093D8012AC09091D901A7
:1004E000E92FF0E0EE55FE4F808180BD9F5F909335
:1004F000D901AF9B02C085E001C083E0981318C00A
:100500001092D801A99814C081E191E00E949A004C
:100510008E3711F41092D80181E191E00E949A0087
:1005200080BD81E191E00E94A00002C01092D8013C
:10053000FF91EF91BF91AF919F918F917F916F91BB
:100540005F914F913F912F910F900FBE0F901F9091
:1005500018951F920F920FB60F9211242F933F936D
:100560004F935F936F937F938F939F93AF93BF93BB
:10057000EF93FF938091DA01882319F0823069F5B7
:100580001AC080E591E00E949400882331F08091A8
:1005900078008F7D8093780020C080E591E00E94F4
:1005A0009A008093730080E591E00E94A00082E0B1
:1005B0008093DA0112C080E591E00E949A008E37A4
:1005C00011F41092DA0180E591E00E949A00809384
:1005D000730080E591E00E94A000FF91EF91BF9130
:1005E000AF919F918F917F916F915F914F913F91CB
:1005F0002F910F900FBE0F901F901895909179003A
:1006000080917300AA9936C09C71A1F52CC090917D
:10061000A101E92FF0E0E554FE4F80839F5F9093A6
:10062000A10108958E3761F51092A1019091A10169
:10063000E92FF0E0E554FE4F80839F5F9093A10186
:1006400082E08093DC01A99A0E948C016C5F7F4F4D
:100650008F4F9F4F609302017093030180930401B9
:100660009093050108959091DC019923D9F292307D
:1006700039F4CDCFAA98AB981092A1011092DC0169
:1006800008951F920F920FB60F9211242F933F934C
:100690004F935F936F937F938F939F93AF93BF938A
:1006A000EF93FF93A89B4FC09091790080917300C6
:1006B0009C7121F0AB981092A10125C0AB9945C067
:1006C0009091DB01913021F060F19230F1F50EC094
:1006D0008E37D9F19091A101E92FF0E0E554FE4F5A
:1006E00080839F5F9093A10182E02AC08E3771F4CE
:1006F000AB9A9091A101E92FF0E0E554FE4F808381
:100700009F5F9093A1011092DB011FC09091A10106
:10071000E92FF0E0E554FE4F80839F5F9093A101A5
:1007200014C08E3791F41092A1019091A101E92F8C
:10073000F0E0E554FE4F80839F5F9093A10181E03C
:100740008093DB0102C00E94FE02FF91EF91BF91F6
:10075000AF919F918F917F916F915F914F913F9159
:100760002F910F900FBE0F901F9018951F920F9210
:100770000FB60F9211248F939F93EF93FF9396B52B
:1007800080B59C7121F0AC981092A0016CC0AC991E
:100790006AC0AA9B59C067C08E3709F464C09091A3
:1007A000A001933150F49091A001E92FF0E0E955B8
:1007B000FE4F80839F5F9093A00182E01DC08E3723
:1007C000C1F5AC9A9091A001E92FF0E0E955FE4FF8
:1007D00080839F5F9093A00129C08E3781F410928F
:1007E000A0019091A001E92FF0E0E955FE4F808330
:1007F0009F5F9093A00181E08093DD0134C08B3135
:1008000091F51092A00183E0F7CF8B3161F19091C7
:10081000A001E92FF0E0E955FE4F80839F5F9093A0
:10082000A00184E0E9CF8B3121F4AA9A1092DD0176
:100830001AC09091A001E92FF0E0E955FE4F8083A6
:100840009F5F9093A0010FC09091DD01923009F459
:10085000B6CF28F4992309F2913029F49DCF933033
:10086000A1F2943001F3FF91EF919F918F910F903E
:100870000FBE0F901F90189582B38C6082BB81B31E
:10088000837F81BB8298839808959FB181E0911105
:1008900001C080E00895839A8DE08A95F1F7000009
:1008A000829A8DE08A95F1F70000089582988DE094
:1008B0008A95F1F700008398089598E087FF02C0B9
:1008C000839801C0839A880F829825E02A95F1F7D2
:1008D0000000829A915091F782987A9BFECF829A7B
:1008E000839A0895880F81600C945D04880F0C949E
:1008F0005D04282F839898E080E0880F829832E08A
:100900003A95F1F700C07B998160829A9150A9F7DE
:100910002111839A829895E09A95F1F70000829AC6
:10092000839A089588ED8FBD13BEA89A0E94C400D3
:100930000E943C048A9A80B7816280BF80B7886039
:1009400080BF8BE18093A20181E08093A3010E948C
:100950008C016D5E7F4F8F4F9F4F60939C01709312
:100960009D0180939E0190939F010E948C01685786
:100970007C4E8F4F9F4F60939801709399018093A5
:100980009A0190939B0111E00FEFC2E3D0E030E2B7
:10099000B32E43E0A42EA8950E948C016B017C012C
:1009A00080919101882351F180919C0190919D014A
:1009B000A0919E01B0919F018C159D05AE05BF05CC
:1009C00008F4A5C11BC080E4789B8F7BA999FECF5A
:1009D000F894A8988093A401AF9B0BC080910F015D
:1009E0008093A5013C9B03C01092A60102C0109306
:1009F000A601A99A85B5806285BD7894409098013A
:100A00005090990160909A0170909B010E948C0116
:100A10002EE1420E511C611C711C461657066806D9
:100A2000790608F09EC1399983C19BC1409092011B
:100A30005090930160909401709095010E948C01F8
:100A4000461657066806790608F490C1AD9B8EC11C
:100A5000809190018823A9F1F894109290017894E4
:100A6000809110018F5F80931001803A51F51092B0
:100A70001001F8948091960190919701789423E069
:100A8000969587952A95E1F7BE010E94DD06982F7D
:100A900092509F32B0F48C9A893191F040F080915D
:100AA00063008F3F69F0809163008F5F07C0809182
:100AB0006300882329F08091630081508093630054
:100AC0008C98AB9B35C080919101882369F181E1BD
:100AD00091E00E94AD008431B0F0F894712C0AC00E
:100AE000E72DF0E0E554FE4F608181E191E00E9446
:100AF000B20073948091A101781690F385B580625D
:100B000085BDAB987894829A8A980E948C0168512E
:100B10007C4F8F4F9F4F6093060170930701809326
:100B200008019093090115C0F894AB98789411C00E
:100B30000E948C01409006015090070160900801CE
:100B400070900901461657066806790610F48298D7
:100B50008A9AA99B32C08091020190910301A091D1
:100B60000401B09105018C159D05AE05BF0508F483
:100B700016C123C08091A1018A30D0F081E191E0BB
:100B80000E94AD00843160F413C0E72DF0E0E5541D
:100B9000FE4F608181E191E00E94B200739401C038
:100BA000712C8091A101781680F385B5806285BD96
:100BB000A998AA9A0E94FE027894AC9B1EC080E578
:100BC00091E00E94AD008431C0F0F894712C0AC00D
:100BD000E72DF0E0E955FE4F608180E591E00E944D
:100BE000B20073948091A001781690F38091780000
:100BF000806280937800AC987894AA9B03C0F894A4
:100C0000AA98789480918F01982F9F5F90938F017D
:100C100080FF02C08D9A01C08D98AE9939C00E94A4
:100C20008C0140900A0150900B0160900C01709073
:100C30000D01461657066806790650F5D301C20124
:100C400083589F4FAF4FBF4F80930A0190930B0182
:100C5000A0930C01B0930D01F89489B18B2589B94B
:100C600080910A0190910B01A0910C01B0910D01AE
:100C70008C309341A105B10550F0AE9A4D988AB7DA
:100C800088608ABF80917100816080937100789440
:100C900067B1617087B190910001691711F080E030
:100CA00007C0682F647080910101681719F081E016
:100CB0000E946500AF991BC00E948C0140900A0100
:100CC00050900B0160900C0170900D014616570674
:100CD0006806790650F480910F01882341F0F8945A
:100CE000AF9A7894A092A30102C010920F010E94C3
:100CF0008C01C616D706E806F90609F04CCE86B771
:100D0000806186BF889586B78F7E86BF44CED70127
:100D1000C6014396A11DB11D80939C0190939D0136
:100D2000A0939E01B0939F01799B4DCE80EC4CCE59
:100D300085B5877D85BD8C9A1092910181E191E006
:100D40000E9487000E948C016856754C8F4F9F4F00
:100D50006093920170939301809394019093950115
:100D600077CE80919101811173CE60CEF89410936B
:100D70009101AD9A85B5886285BD0E948C016D5E3A
:100D80007F4F8F4F9F4F60939C0170939D01809385
:100D90009E0190939F0100BD78948C9859CEF89451
:100DA000809191018111E6CE03CF80E591E00E9410
:100DB000810081E191E00C948100AA1BBB1B51E1F1
:100DC00007C0AA1FBB1FA617B70710F0A61BB70BBB
:100DD000881F991F5A95A9F780959095BC01CD0160
:100DE000089597FB072E16F4009407D077FD09D0DD
:100DF0000E94DD0607FC05D03EF4909581959F4F3B
:100E00000895709561957F4F0895EE0FFF1F05902F
:0A0E1000F491E02D0994F894FFCF4F
:020E1A000101D4
:00000001FF
