:100000000C9439000C9461000C9461000C94610014
:100010000C9461000C9461000C9460030C946100DA
:100020000C9461000C9461000C9437030C946100F3
:100030000C9461000C9461000C9461000C946100BC
:100040000C9426050C94E3030C9461000C9461005D
:100050000C94BA040C9465040C9461000C94610037
:100060000C9461000C9461000C9461000C9461008C
:10007000A10211241FBECFEFD4E0DEBFCDBF11E03F
:10008000A0E0B1E0EEE8FCE002C005900D92A230E5
:10009000B107D9F711E0A2E0B1E001C01D92A53D82
:1000A000B107E1F710E0C2E7D0E004C02297FE01FB
:1000B0000E944106C037D107C9F70E947F000C9407
:1000C00045060C94000090E0FC01E050FF4F608377
:1000D000509100014091010121E030E0541711F0EE
:1000E00020E030E02817390721F08091C5018F5FAB
:1000F00003C08091C50181508093C5010895DF92AE
:10010000EF92FF920F931F93CF93DF9388ED8FBDF4
:1001100013BE8091C30181608093C3010E94EE02EF
:100120008BE180932A0181E080932B0180913B0138
:1001300090913C01A0913D01B0913E010396A11D1B
:10014000B11D8093310190933201A0933301B0939C
:10015000340180913B0190913C01A0913D01B0910F
:100160003E0188519C4FAF4FBF4F80933501909314
:100170003601A0933701B0933801EE24E394C2E333
:10018000D0E040E2F42E33E0D32E80914301882367
:1001900009F44CC08091310190913201A09133015A
:1001A000B091340120913B0130913C0140913D01DF
:1001B00050913E0182179307A407B507B8F504963E
:1001C000A11DB11D8093310190933201A0933301A1
:1001D000B0933401799B02C080EC01C080E49FB1F0
:1001E00090FF8F7B9091C30191FDFCCFF89490918B
:1001F000C3019E7F9093C30180932C018091C30122
:1002000087FF0BC08091C50180932D013C9B03C0EB
:1002100010922E0102C0E0922E018091C3018260F3
:100220008093C30185B5806285BD78948091350146
:1002300090913601A0913701B091380120913B0196
:1002400030913C0140913D0150913E010696A11D27
:10025000B11D82179307A407B50708F06CC1399B3D
:100260006AC185B5877D85BD8C9A1092430184E86B
:1002700091E00E94B00280913B0190913C01A091DD
:100280003D01B0913E018854944FAF4FBF4F8093D2
:100290003F0190934001A0934101B093420137C0C8
:1002A00080913B0190913C01A0913D01B0913E01B4
:1002B00020913F0130914001409141015091420114
:1002C000281739074A075B0720F08091C30185FD95
:1002D0001EC0E09243018091C30180628093C301FC
:1002E00085B5886285BD80913B0190913C01A091CC
:1002F0003D01B0913E010396A11DB11D80933101D6
:1003000090933201A0933301B09334018C98809183
:1003100044018823B1F1F8941092440178948091BB
:10032000C4018F5F8093C401803259F51092C401DB
:10033000F8948091390190913A01789423E0969550
:1003400087952A95E1F7BE010E941806982F9250D2
:100350009F32B8F48C9A893199F08A3140F08091BB
:1003600063008F3F69F0809163008F5F07C08091C9
:100370006300882329F0809163008150809363009B
:100380008C988091C30183FF29C080914301882309
:10039000F1F084E891E00E94D7028431F8F000E0A7
:1003A00010E00AC0F801EE5FFE4F608184E891E042
:1003B0000E94DC020F5F1F4F80912F0190E0081711
:1003C000190784F3F89485B5806285BD01C0F8945F
:1003D0008091C301877F8093C30178948091C3018A
:1003E00084FF25C085E491E00E94D7028431F8F0B3
:1003F00000E010E00AC0F801EA5EFE4F608185E48B
:1004000091E00E94DC020F5F1F4F8091300190E06D
:100410000817190784F3F89480917800806280931C
:1004200078008091C3018F7E8093C301789480917E
:10043000C30182FF07C0F8948091C3018B7F809332
:10044000C301789481B38F2581BB8091C30186FD60
:1004500031C020913B0130913C0140913D015091D0
:100460003E018091C7019091C801A091C901B0914E
:10047000CA0182179307A407B507E0F44996A11DA6
:10048000B11D8093C7019093C801A093C901B09397
:10049000CA0129B12F2529B9893E23E0920720E01E
:1004A000A20720E0B20730F08091C30180648093FE
:1004B000C3014D9867B1617087B1909100016917D0
:1004C00011F080E007C0682F647080910101681707
:1004D00019F081E00E9463008091C30187FD23C071
:1004E00020913B0130913C0140913D0150913E01F2
:1004F0008091C7019091C801A091C901B091CA0132
:1005000082179307A407B50760F48091C50188237B
:1005100051F08091C30180688093C301D0922B0178
:1005200002C01092C50186B7806186BF889586B7E4
:100530008F7E86BF2ACE80914301882309F4B0CEF6
:10054000E6CE85E491E00E94AA0284E891E00E9450
:10055000AA020895FC0114AE8BE385AF16AE089590
:10056000FC0114AE8BE385AF16AE0895FC0196AD89
:1005700081E09C3309F080E00895FC0196AD81E0B4
:10058000911180E00895FC0124AD820F911DFC01C2
:1005900080810895FC0186AD815086AF84AD90E0E6
:1005A00001966CE370E00E942C0684AF0895FC0174
:1005B00096AD8CE3891B0895FC01462F85AD90E034
:1005C00001966CE370E00E942C0685AF86AD8F5FCC
:1005D00086AF85ADE80FF11D4083089589E484BF9F
:1005E00080E886B980B38C7F80BB82B3836082BB96
:1005F00080B38C6780BB81B3837881BB459A519A65
:10060000419812BC93E391BD16BC86E084BD13BC37
:1006100020E925BD10927500909374001092790026
:10062000809377001092760088E980937800639831
:100630006B9A739888B18A7E88B98AB185618AB9C4
:1006400089B1856189B982E08BBB8AB781608ABF35
:1006500019BA8CE988BB84E08ABB8AB788608ABFF4
:10066000E1E7F0E0808181608083789408951F92B3
:100670000F920FB60F9211248F939F93AF93BF9356
:1006800080913B0190913C01A0913D01B0913E01D0
:100690000196A11DB11D80933B0190933C01A09355
:1006A0003D01B0933E0181B390E4892781BBBF91A6
:1006B000AF919F918F910F900FBE0F901F90189543
:1006C0001F920F920FB60F9211242F933F938F9387
:1006D0009F93AF93BF9380913B0190913C01A09178
:1006E0003D01B0913E018093350190933601A09376
:1006F0003701B09338018091CB018F5F8093CB019C
:10070000853608F455C080914301882309F450C010
:1007100085E68093CB018091710086FF39C009B6D0
:1007200007FE08C0809171008F7B8093710089B7AC
:1007300088683DC080916800909169009093CD01D8
:100740008093CC01209171002F7B2093710029B7F9
:10075000286029BF2091CE013091CF01821B930BDD
:1007600090933A01809339018091390190913A0137
:1007700029E184369207E0F48091390190913A01A1
:1007800022E08D3B9207A0F081E08093440110C0ED
:1007900080916800909169009093CF018093CE0181
:1007A0008091710080648093710089B7886089BFEF
:1007B000BF91AF919F918F913F912F910F900FBE5D
:1007C0000F901F9018951F920F920FB60F92112441
:1007D0002F933F934F935F936F937F938F939F9349
:1007E000AF93BF93EF93FF938091D101813061F17B
:1007F000813020F0823009F055C042C08091C301A1
:1008000081FF0AC080912A0180BD81E08093D201DE
:100810008093D101639848C084E891E00E94BD02B2
:10082000882321F085B58F7D85BD3EC0639A84E81D
:1008300091E00E94C30280BD84E891E00E94CA0258
:1008400082E08093D10130C09091D201E92FF0E095
:10085000E65DFE4F808180BD9F5F9093D2018091C5
:10086000C30187FF02C085E001C083E09817E1F46F
:100870001092D1018091C3018D7F8093C30114C078
:1008800084E891E00E94C3028E3711F41092D101E6
:1008900084E891E00E94C30280BD84E891E00E9458
:1008A000CA0202C01092D101FF91EF91BF91AF91A6
:1008B0009F918F917F916F915F914F913F912F9178
:1008C0000F900FBE0F901F9018951F920F920FB6AA
:1008D0000F9211242F933F934F935F936F937F93C6
:1008E0008F939F93AF93BF93EF93FF938091D0012A
:1008F000882319F0823069F51AC085E491E00E94DE
:10090000BD02882331F0809178008F7D809378003C
:1009100020C085E491E00E94C3028093730085E4C7
:1009200091E00E94CA0282E08093D00112C085E467
:1009300091E00E94C3028E3711F41092D00185E439
:1009400091E00E94C3028093730085E491E00E94CD
:10095000CA02FF91EF91BF91AF919F918F917F91CB
:100960006F915F914F913F912F910F900FBE0F901C
:100970001F9018951F920F920FB60F9211248F930C
:100980009F93EF93FF9390917900809173009C71F6
:1009900041F08091C301877F8093C30110922F01A2
:1009A0004CC09091C30193FD48C09091D401913007
:1009B00031F0913088F1923009F03FC00EC08E378F
:1009C000E1F190912F01E92FF0E0EE5FFE4F80837F
:1009D0009F5F90932F0182E02EC08E3791F490910B
:1009E000C30198609093C30190912F01E92FF0E02B
:1009F000EE5FFE4F80839F5F90932F011092D40192
:100A00001CC090912F01E92FF0E0EE5FFE4F808334
:100A10009F5F90932F0111C08E3779F410922F01B0
:100A200090912F01E92FF0E0EE5FFE4F80839F5FF2
:100A300090932F0181E08093D401FF91EF919F91DA
:100A40008F910F900FBE0F901F9018951F920F92CD
:100A50000FB60F9211248F939F93EF93FF9396B548
:100A600080B59C7141F08091C3018F7E8093C3015A
:100A7000109230017BC09091C30194FD77C090919A
:100A8000C30192FD73C09091D301923011F1933064
:100A900030F4992389F1913009F068C007C0933090
:100AA00009F440C0943009F061C04CC08E3709F49D
:100AB0005DC090913001933150F490913001E92F55
:100AC000F0E0EA5EFE4F80839F5F9093300182E00A
:100AD00036C08E3709F040C09091C3019061909369
:100AE000C30190913001E92FF0E0EA5EFE4F808370
:100AF0009F5F909330012DC08E3771F410923001BA
:100B000090913001E92FF0E0EA5EFE4F80839F5F15
:100B10009093300181E013C08B3141F51092300188
:100B200083E00DC08B3111F190913001E92FF0E09D
:100B3000EA5EFE4F80839F5F9093300184E0809354
:100B4000D30114C08B3141F48091C3018460809340
:100B5000C3011092D3010AC090913001E92FF0E057
:100B6000EA5EFE4F80839F5F90933001FF91EF918B
:100B70009F918F910F900FBE0F901F90189582B389
:100B80008C6082BB81B3837F81BB829883980895F8
:100B90009FB181E0992309F480E00895839A8DE064
:100BA0008A95F1F70000829A8DE08A95F1F70000AE
:100BB000089582988DE08A95F1F700008398089552
:100BC00098E087FF02C0839801C0839A829825E04D
:100BD0002A95F1F70000829A915011F0880FF1CF19
:100BE00082987A9BFECF829A839A0895880F8160BB
:100BF0000E94E0050895880F0E94E0050895282FBF
:100C0000839898E080E0880F829832E03A95F1F777
:100C100000C07B998160829A9150A9F72111839A33
:100C2000829895E09A95F1F70000829A839A089548
:100C3000AA1BBB1B51E107C0AA1FBB1FA617B70702
:100C400010F0A61BB70B881F991F5A95A9F780951E
:100C50009095BC01CD01089597FB092E07260AD077
:100C600077FD04D0E5DF06D000201AF47095619579
:100C70007F4F0895F6F7909581959F4F0895EE0F59
:0E0C8000FF1F0590F491E02D0994F894FFCF2A
:020C8E00010162
:00000001FF
