:100000000C943B000C9463000C9463000C9463000C
:100010000C9463000C9463000C9451010C946300E5
:100020000C9463000C9463000C9428010C946300FE
:100030000C9463000C9463000C9463000C946300B4
:100040000C9415030C94D4010C9463000C9463007D
:100050000C94AA020C945B020C9463000C94630051
:100060000C9463000C9463000C9463000C94630084
:100070000C9463004F0611241FBECFEFD2E0DEBF09
:10008000CDBF11E0A0E0B1E0EAEFFCE002C00590D6
:100090000D92AA30B107D9F711E0AAE0B1E001C092
:1000A0001D92AE3DB107E1F710E0C6E7D0E004C015
:1000B0002297FE010E947706C437D107C9F70E9434
:1000C00001040C947B060C940000E82FF0E0E05053
:1000D000FF4F6083309100012091010191E03213C4
:1000E00090E0981721F08091CE018F5F03C080913E
:1000F000CE0181508093CE010895FC0114AE8BE3B4
:1001000085AF16AE0895FC0114AE8BE385AF16AE35
:100110000895FC0196AD81E09C3309F080E00895DC
:10012000FC0196AD81E0911180E00895FC0124ADC1
:10013000E20FF11D80810895FC0186AD815086AFEC
:1001400084AD8F5F6CE3B1D594AF0895FC0196AD9B
:100150008CE3891B0895FC01262F85AD8F5F6CE32E
:10016000A4D595AF86AD8F5F86AF85ADE80FF11D45
:100170002083089589E484BF80E886B98AE080936B
:10018000CD0182B38C7F82BB81B38C7F81BB80B376
:10019000836080BB7F9909C0899A7F9B06C089983C
:1001A0007F9903C08BE08093CD0158990BC0889A4A
:1001B000589B08C08898589905C08091CD018E5FE2
:1001C0008093CD0180B38C7F80BB82B3836082BB80
:1001D00080B38C6780BB81B3837881BB459A519A89
:1001E000419821E022BD92E691BD16BC86E084BD17
:1001F00013BC30E935BD20937500909374001092C4
:100200007900809377001092760088E980937800D7
:10021000639A6B9A739888B18A7E88B98AB185612E
:100220008AB989B1856189B982E08BBB8AB781605F
:100230008ABF19BA8CE988BB84E08ABB8AB7886018
:100240008ABF8091710081608093710078940895D5
:100250001F920F920FB60F9211248F939F93AF931B
:10026000BF938091430190914401A0914501B091C9
:1002700046010196A11DB11D809343019093440155
:10028000A0934501B093460181B390E4892781BBD7
:10029000BF91AF919F918F910F900FBE0F901F90C4
:1002A00018951F920F920FB60F9211242F933F9320
:1002B0008F939F93AF93BF9380914301909144019B
:1002C000A0914501B091460180933D0190933E017C
:1002D000A0933F01B09340018091D4018F5F809340
:1002E000D401853608F455C080914B01811146C078
:1002F00050C009B607FE08C0809171008F7B8093C3
:10030000710089B7886838C0809168009091690051
:100310009093D6018093D501209171002F7B20937B
:10032000710029B7286029BF2091D7013091D801E9
:10033000821B930B90934201809341018091410174
:10034000909142018436994120F58091410190912C
:1003500042018D3B9240D0F41CC080916800909186
:1003600069009093D8018093D701809171008064D7
:100370008093710089B7886089BF0BC085E6809340
:10038000D4018091710086FDB4CFE7CF81E08093E6
:100390004C01BF91AF919F918F913F912F910F9001
:1003A0000FBE0F901F9018951F920F920FB60F92CD
:1003B00011242F933F934F935F936F937F938F936A
:1003C0009F93AF93BF93EF93FF938091DA018130B6
:1003D000A1F120F0823009F05BC04BC08091CB01CD
:1003E00081FF10C006B406FEFDCF639A86B5806417
:1003F00086BD1092DB018091320180BD81E0809347
:10040000DB0118C08CE891E08BDE882321F085B5F4
:100410008F7D85BD3FC006B406FEFDCF639886B5CF
:10042000806486BD8CE891E081DE80BD8CE891E03F
:1004300083DE82E08093DA012DC09091DB01E92F09
:10044000F0E0EE5CFE4F808180BD9F5F9093DB010A
:100450008091CB0187FF02C085E001C083E0981343
:1004600019C01092DA018091CB018D7F8093CB016E
:1004700011C08CE891E05ADE8E3711F41092DA0147
:100480008CE891E053DE80BD8CE891E055DE02C03F
:100490001092DA01FF91EF91BF91AF919F918F91EF
:1004A0007F916F915F914F913F912F910F900FBE70
:1004B0000F901F9018951F920F920FB60F92112454
:1004C0002F933F934F935F936F937F938F939F935C
:1004D000AF93BF93EF93FF938091D901882319F0D5
:1004E000823039F517C08DE491E01ADE882331F0AF
:1004F000809178008F7D809378001BC08DE491E01F
:1005000015DE809373008DE491E016DE82E0809327
:10051000D9010FC08DE491E009DE8E3711F41092FD
:10052000D9018DE491E002DE809373008DE491E0C7
:1005300003DEFF91EF91BF91AF919F918F917F91DA
:100540006F915F914F913F912F910F900FBE0F9040
:100550001F9018951F920F920FB60F9211248F9330
:100560009F93EF93FF9390917900809173009C711A
:1005700041F08091CB01877F8093CB0110923701AE
:100580004BC09091CB0193FD47C09091DD0191301C
:1005900029F088F1923009F03FC00EC08E37E1F1AA
:1005A00090913701E92FF0E0E65FFE4F80839F5F77
:1005B0009093370182E02EC08E3791F49091CB0159
:1005C00098609093CB0190913701E92FF0E0E65FBE
:1005D000FE4F80839F5F909337011092DD011CC016
:1005E00090913701E92FF0E0E65FFE4F80839F5F37
:1005F0009093370111C08E3779F4109237019091A2
:100600003701E92FF0E0E65FFE4F80839F5F909314
:10061000370181E08093DD01FF91EF919F918F91F0
:100620000F900FBE0F901F9018951F920F920FB64C
:100630000F9211248F939F93EF93FF9396B580B5FC
:100640009C7141F08091CB018F7E8093CB01109201
:1006500038017AC09091CB0194FD76C09091CB0186
:1006600092FF62C071C08E3709F46EC0909138015C
:10067000933150F490913801E92FF0E0E25EFE4FA3
:1006800080839F5F9093380182E022C08E3709F00B
:1006900040C09091CB0190619093CB019091380133
:1006A000E92FF0E0E25EFE4F80839F5F9093380178
:1006B0002DC08E3781F41092380190913801E92FC6
:1006C000F0E0E25EFE4F80839F5F9093380181E00F
:1006D0008093DC0139C08B31B9F51092380183E089
:1006E000F7CF8B3189F190913801E92FF0E0E25E8C
:1006F000FE4F80839F5F9093380184E0E9CF8B3178
:1007000041F48091CB0184608093CB011092DC0195
:100710001BC090913801E92FF0E0E25EFE4F80832C
:100720009F5F9093380110C09091DC01923009F4E2
:10073000ADCF30F4992309F4BCCF913029F493CF95
:10074000933079F29430D9F2FF91EF919F918F918C
:100750000F900FBE0F901F90189582B38C6082BBD4
:1007600081B3837F81BB8298839808959FB181E094
:10077000911101C080E00895839A8DE08A95F1F788
:100780000000829A8DE08A95F1F700000895829822
:100790008DE08A95F1F7000083980895880F03C0D3
:1007A000880F816000C098E087FF02C0839801C075
:1007B000839A880F829825E02A95F1F70000829AA3
:1007C000915091F782987A9BFECF829A839A0895EE
:1007D000282F839898E080E0880F829832E03A953D
:1007E000F1F700C07B998160829A9150A9F721119D
:1007F000839A829895E09A95F1F70000829A839AFD
:10080000089588ED8FBD13BE8091CB0181608093E8
:10081000CB01B0DCA2DF8BE18093320181E08093D9
:1008200033018091430190914401A0914501B09121
:1008300046010396A11DB11D8093390190933A01A1
:10084000A0933B01B0933C018091430190914401FE
:10085000A0914501B091460188519C4FAF4FBF4FC9
:1008600080933D0190933E01A0933F01B0934001DE
:1008700001E0FF24FA94C2E3D0E010E233E0E32E7B
:1008800080914B01882309F43EC0809139019091F9
:100890003A01A0913B01B0913C014091430150913C
:1008A0004401609145017091460184179507A607A0
:1008B000B70708F4A1C127C080E4789B8F7B909193
:1008C000CB0191FDFCCFF8949091CB019E7F90934A
:1008D000CB01809334018091CB0187FF0BC08091C5
:1008E000CE01809335013C9B03C01092360102C0BB
:1008F000009336018091CB0182608093CB0185B556
:10090000806285BD789480913D0190913E01A091D7
:100910003F01B091400140914301509144016091E9
:100920004501709146010696A11DB11D84179507DA
:10093000A607B70708F08DC139996DC18AC18091AA
:10094000430190914401A0914501B091460140912D
:100950004701509148016091490170914A0148173F
:1009600059076A077B0708F47AC18091CB0185FF9C
:1009700076C180914C018823A1F1F89410924C012A
:1009800078948091CC018F5F8093CC01803249F5BF
:100990001092CC01F8948091410190914201789499
:1009A00023E0969587952A95E1F7BE018AD1982F85
:1009B00092509F32B0F48C9A893191F040F080913E
:1009C00063008F3F69F0809163008F5F07C0809163
:1009D0006300882329F08091630081508093630035
:1009E0008C988091CB0183FF25C080914B01882397
:1009F000D1F08CE891E0AADB843158F41BC0ED2DD6
:100A0000F0E0E65FFE4F60818CE891E0A4DBD394D8
:100A100001C0D12C80913701D81688F3F89485B5A0
:100A2000806285BD01C0F8948091CB01877F80935F
:100A3000CB0178948091CB0184FF28C08DE491E0B4
:100A400085DB843158F422C0ED2DF0E0E25EFE4FEC
:100A500060818DE491E07FDBD39401C0D12C809143
:100A60003801D81688F3F8948091780080628093DA
:100A700078008091CB018F7E8093CB017894809118
:100A8000CD01863018F08A508093CD018091CB0142
:100A900082FF07C0F8948091CB018B7F8093CB01BC
:100AA000789481B3812781BB2091CB018091D001C3
:100AB0009091D101A091D201B091D3014091430115
:100AC00050914401609145017091460126FD1FC07F
:100AD00084179507A607B70708F04EC04996A11DD1
:100AE000B11D8093D0019093D101A093D201B09316
:100AF000D30129B1212729B9893E9340A105B10528
:100B0000D8F18091CB0180648093CB0134C08417ED
:100B10009507A607B70780F52091CD01263038F05C
:100B200029B1212729B90596A11DB11D1BC021306E
:100B300039F429B1212729B94996A11DB11D12C047
:100B4000223039F429B1212729B9C296A11DB11D3E
:100B500009C0233081F429B1212729B98C599F4F2D
:100B6000AF4FBF4F8093D0019093D101A093D2019A
:100B7000B093D30101C04D9867B1617087B1909176
:100B80000001691711F080E007C0682F6470809140
:100B90000101681711F081E098DA8091CB0187FD9F
:100BA00023C04091430150914401609145017091EF
:100BB00046018091D0019091D101A091D201B091D4
:100BC000D30184179507A607B70760F48091CE017B
:100BD000882351F08091CB0180688093CB01E09213
:100BE000330102C01092CE0186B7806186BF88951E
:100BF00086B78F7E86BF44CE0496A11DB11D80931B
:100C0000390190933A01A0933B01B0933C01799B49
:100C100053CE80EC52CE85B5877D85BD8C9A1092DF
:100C20004B018CE891E06FDA80914301909144018F
:100C3000A0914501B09146018854944FAF4FBF4FEA
:100C40008093470190934801A0934901B0934A01D2
:100C500090CE80914B01882309F471CE8ACE009307
:100C60004B018091CB0180628093CB0185B5886276
:100C700085BD8091430190914401A0914501B091BF
:100C800046010396A11DB11D8093390190933A014D
:100C9000A0933B01B0933C01F0BC8C986ACE8DE4EC
:100CA00091E02BDA8CE891E028CA991B79E004C026
:100CB000991F961708F0961B881F7A95C9F780959B
:100CC0000895AA1BBB1B51E107C0AA1FBB1FA61793
:100CD000B70710F0A61BB70B881F991F5A95A9F7E5
:100CE00080959095BC01CD010895EE0FFF1F0590F2
:0A0CF000F491E02D0994F894FFCF71
:0A0CFA00010119000000E8030000EA
:02000004008278
:0300000062DFFFBD
:00000001FF
