:100000000C943B000C9463000C9463000C9463000C
:100010000C9463000C9463000C9440010C946300F6
:100020000C9463000C9463000C9405010C94630021
:100030000C9463000C9463000C9463000C946300B4
:100040000C9400030C94C6010C9463000C946300A0
:100050000C94A0020C944B020C9463000C9463006B
:100060000C9463000C9463000C9463000C94630084
:100070000C946300E40511241FBECFEFD2E0DEBF75
:10008000CDBF11E0A0E0B1E0E8E3FCE002C00590E4
:100090000D92A230B107D9F711E0A2E0B1E001C0A2
:1000A0001D92A93DB107E1F710E0C6E7D0E004C01A
:1000B0002297FE010E941606C437D107C9F70E9495
:1000C000DC030C941A060C94000090E0FC01E05054
:1000D000FF4F6083509100014091010121E030E029
:1000E000541711F020E030E02817390721F08091F3
:1000F0000B018F5F03C080910B01815080930B0136
:100100000895FC0114AE8BE385AF16AE0895FC0193
:1001100014AE8BE385AF16AE0895FC0196AD81E079
:100120009C3309F080E00895FC0196AD81E09111C7
:1001300080E00895FC0124ADE20FF11D8081089557
:10014000FC0186AD815086AF84AD90E001966CE3F2
:1001500070E00E94000684AF0895FC0196AD8CE328
:10016000891B0895FC01262F85AD90E001966CE374
:1001700070E00E94000685AF86AD8F5F86AF85ADCB
:10018000E80FF11D2083089589E484BF80E886B9D3
:1001900080B38C7F80BB82B3836082BB80B38C676B
:1001A00080BB81B3837881BB459A519A419812BC38
:1001B00093E391BD16BC86E084BD13BC20E925BD48
:1001C00010927500909374001092790080937700DC
:1001D0001092760088E980937800639A6B9A7398FE
:1001E00088B18A7E88B98AB185618AB989B1856109
:1001F00089B982E08BBB8AB781608ABF19BA8DE763
:1002000088BB83E08ABB789408951F920F920FB643
:100210000F9211248F939F93AF93BF938091CB0143
:100220009091CC01A091CD01B091CE010196A11D7C
:10023000B11D8093CB019093CC01A093CD01B093DD
:10024000CE0181B390E4892781BBBF91AF919F918B
:100250008F910F900FBE0F901F9018950F931F93C3
:100260008FB7F8940091CB011091CC012091CD0172
:100270003091CE018FBFB801C9011F910F91089530
:100280001F920F920FB60F9211242F933F934F930B
:100290005F936F937F938F939F93AF93BF93EF93EE
:1002A000FF930E942E0160939401709395018093B7
:1002B0009601909397018091CF018F5F8093CF013A
:1002C000853608F452C080918D01811143C04DC024
:1002D00009B607FE07C0809171008F7B8093710083
:1002E00088E836C080916800909169009093D101B0
:1002F0008093D001209171002F7B2093710028E022
:1003000029BF2091D2013091D301821B930B90938E
:100310009301809392018091920190919301843690
:10032000994118F580919201909193018D3B9240F3
:10033000C8F41BC080916800909169009093D3012C
:100340008093D2018091710080648093710088E075
:1003500089BF0BC085E68093CF018091710086FD37
:10036000B7CFE8CF81E080938C01FF91EF91BF91EF
:10037000AF919F918F917F916F915F914F913F913D
:100380002F910F900FBE0F901F9018951F920F92F4
:100390000FB60F9211242F933F934F935F936F9358
:1003A0007F938F939F93AF93BF93EF93FF9380912E
:1003B000D4018130A9F120F0823009F059C046C043
:1003C000A99B10C006B406FEFDCF639A86B5806473
:1003D00086BD1092D50180919E0180BD81E0809301
:1003E000D5011BC08DE091E00E949400882321F08C
:1003F00085B58F7D85BD3EC006B406FEFDCF6398F2
:1004000086B5806486BD8DE091E00E949A0080BD33
:100410008DE091E00E94A00082E08093D4012AC088
:100420009091D501E92FF0E0E256FE4F808180BD2A
:100430009F5F9093D501AF9B02C085E001C083E030
:10044000981318C01092D401A99814C08DE091E0BF
:100450000E949A008E3711F41092D4018DE091E041
:100460000E949A0080BD8DE091E00E94A00002C031
:100470001092D401FF91EF91BF91AF919F918F9115
:100480007F916F915F914F913F912F910F900FBE90
:100490000F901F9018951F920F920FB60F92112474
:1004A0002F933F934F935F936F937F938F939F937C
:1004B000AF93BF93EF93FF938091D601882319F0F8
:1004C000823069F51AC08CE491E00E949400882380
:1004D00031F0809178008F7D8093780020C08CE48B
:1004E00091E00E949A00809373008CE491E00E9456
:1004F000A00082E08093D60112C08CE491E00E94BB
:100500009A008E3711F41092D6018CE491E00E948B
:100510009A00809373008CE491E00E94A000FF9108
:10052000EF91BF91AF919F918F917F916F915F916B
:100530004F913F912F910F900FBE0F901F901895E4
:100540001F920F920FB60F9211248F939F93EF93E8
:10055000FF9390917900809173009C7121F0AB988A
:1005600010929D0144C0AB9942C09091D701913047
:1005700021F060F19230D9F50EC08E37C1F1909123
:100580009D01E92FF0E0E954FE4F80839F5F909337
:100590009D0182E02AC08E3771F4AB9A90919D0143
:1005A000E92FF0E0E954FE4F80839F5F90939D0117
:1005B0001092D7011CC090919D01E92FF0E0E95401
:1005C000FE4F80839F5F90939D0111C08E3779F419
:1005D00010929D0190919D01E92FF0E0E954FE4FAA
:1005E00080839F5F90939D0181E08093D701FF916D
:1005F000EF919F918F910F900FBE0F901F901895C4
:100600001F920F920FB60F9211248F939F93EF9327
:10061000FF9396B580B59C7121F0AC9810929C0127
:100620006CC0AC996AC0AA9B59C067C08E3709F4E8
:1006300064C090919C01933150F490919C01E92FFA
:10064000F0E0ED55FE4F80839F5F90939C0182E028
:100650001DC08E37C1F5AC9A90919C01E92FF0E056
:10066000ED55FE4F80839F5F90939C0129C08E378C
:1006700081F410929C0190919C01E92FF0E0ED55DE
:10068000FE4F80839F5F90939C0181E08093D8010F
:1006900034C08B3191F510929C0183E0F7CF8B3100
:1006A00061F190919C01E92FF0E0ED55FE4F8083C0
:1006B0009F5F90939C0184E0E9CF8B3121F4AA9A4B
:1006C0001092D8011AC090919C01E92FF0E0ED55ED
:1006D000FE4F80839F5F90939C010FC09091D80143
:1006E000923009F4B6CF28F4992309F2913029F415
:1006F0009DCF9330A1F2943001F3FF91EF919F9140
:100700008F910F900FBE0F901F90189582B38C6041
:1007100082BB81B3837F81BB8298839808959FB108
:1007200081E0911101C080E00895839A8DE08A955F
:10073000F1F70000829A8DE08A95F1F700000895A4
:1007400082988DE08A95F1F700008398089598E0EB
:1007500087FF02C0839801C0839A880F829825E0A2
:100760002A95F1F70000829A915091F782987A9B2E
:10077000FECF829A839A0895880F81600C94A70314
:10078000880F0C94A703282F839898E080E0880FA7
:10079000829832E03A95F1F700C07B998160829AA5
:1007A0009150A9F72111839A829895E09A95F1F7D3
:1007B0000000829A839A089588ED8FBD13BEA89A8F
:1007C0000E94C4000E9486038A9A80B7816280BF1B
:1007D00080B7886080BF8BE180939E0181E0809329
:1007E0009F010E942E016D5E7F4F8F4F9F4F609340
:1007F00098017093990180939A0190939B010E94B4
:100800002E0168577C4E8F4F9F4F609394017093D9
:1008100095018093960190939701C1E0DFEF32E359
:10082000632E712C10E203E0A8950E942E016B014B
:100830007C0180918D01882351F1809198019091E4
:100840009901A0919A01B0919B018C159D05AE056F
:10085000BF0508F471C11BC080E4789B8F7BA99908
:10086000FECFF894A8988093A001AF9B0BC0809115
:100870000B018093A1013C9B03C01092A20102C016
:10088000C093A201A99A85B5806285BD78948090B5
:10089000940190909501A0909601B09097010E94CC
:1008A0002E012EE1820E911CA11CB11C861697060A
:1008B000A806B90608F06AC139994FC167C180908E
:1008C0008E0190908F01A0909001B09091010E94B4
:1008D0002E0186169706A806B90608F45CC1AD9BE2
:1008E0005AC180918C018823A9F1F89410928C014F
:1008F000789480910C018F5F80930C01803A51F5C0
:1009000010920C01F8948091920190919301789447
:1009100023E0969587952A95E1F7B3010E94EC05AF
:10092000982F92509F32B0F48C9A893191F040F018
:10093000809163008F3F69F0809163008F5F07C0F3
:1009400080916300882329F0809163008150809317
:1009500063008C98AB9B35C080918D01882369F131
:100960008DE091E00E94AD008431B0F0F894B12C9C
:100970000AC0EB2DF0E0E954FE4F60818DE091E07C
:100980000E94B200B39480919D01B81690F385B592
:10099000806285BDAB987894829A8A980E942E01D5
:1009A00068517C4F8F4F9F4F6093020170930301FA
:1009B000809304019093050115C0F894AB98789446
:1009C00011C00E942E018090020190900301A0901E
:1009D0000401B090050186169706A806B90610F422
:1009E00082988A9AAC9B1EC08CE491E00E94AD0074
:1009F0008431C0F0F894B12C0AC0EB2DF0E0ED5535
:100A0000FE4F60818CE491E00E94B200B39480912B
:100A10009C01B81690F380917800806280937800F2
:100A2000AC987894AA9B03C0F894AA987894809183
:100A30008B01982F9F5F90938B0180FF02C08D9A4E
:100A400001C08D98AE9939C00E942E018090060198
:100A500090900701A0900801B090090186169706B2
:100A6000A806B90650F5D501C40183589F4FAF4F72
:100A7000BF4F8093060190930701A0930801B093A4
:100A80000901F89489B1812789B980910601909173
:100A90000701A0910801B09109018C309341A10593
:100AA000B10550F0AE9A4D988AB788608ABF8091A0
:100AB0007100816080937100789467B1617087B133
:100AC00090910001691711F080E007C0682F6470F1
:100AD00080910101681719F081E00E946500AF99CB
:100AE0001BC00E942E018090060190900701A090EB
:100AF0000801B090090186169706A806B90650F4B9
:100B000080910B01882341F0F894AF9A7894009378
:100B10009F0102C010920B010E942E01C616D7063B
:100B2000E806F90609F080CE86B7806186BF889511
:100B300086B78F7E86BF78CED701C6014396A11DAA
:100B4000B11D8093980190939901A0939A01B0935D
:100B50009B01799B81CE80EC80CE85B5877D85BD5C
:100B60008C9A10928D018DE091E00E9487000E9486
:100B70002E016856754C8F4F9F4F60938E01709376
:100B80008F018093900190939101ABCE80918D0164
:100B90008111A7CE94CEF894C0938D01AD9A85B5FE
:100BA000886285BD0E942E016D5E7F4F8F4F9F4FE3
:100BB000609398017093990180939A0190939B019F
:100BC000D0BD78948C988DCE8CE491E00E94810009
:100BD0008DE091E00C948100AA1BBB1B51E107C082
:100BE000AA1FBB1FA617B70710F0A61BB70B881FBD
:100BF000991F5A95A9F780959095BC01CD0108954C
:100C000097FB072E16F4009407D077FD09D00E94B9
:100C1000EC0507FC05D03EF4909581959F4F089513
:100C2000709561957F4F0895EE0FFF1F0590F49129
:080C3000E02D0994F894FFCFB8
:020C38000101B8
:00000001FF
