:100000000C9439000C9461000C9461000C94610014
:100010000C9461000C9461000C94C0020C9461007B
:100020000C9461000C9461000C9497020C94610094
:100030000C9461000C9461000C9461000C946100BC
:100040000C9415040C94C4030C9461000C9461008E
:100050000C947F040C9443030C9461000C94610095
:100060000C9461000C9461000C9461000C9461008C
:10007000040211241FBECFEFD4E0DEBFCDBF11E0DC
:10008000A0E0B1E0E2E9FAE002C005900D92A230F2
:10009000B107D9F711E0A2E0B1E001C01D92AD3C7B
:1000A000B107E1F710E0C2E7D0E004C02297FE01FB
:1000B0000E944305C037D107C9F70E9463000C9422
:1000C00047050C940000EF92FF920F931F93CF937C
:1000D000DF9388ED8FBD13BE8091C1018160809355
:1000E000C1010E9451028BE180932A0191E090931B
:1000F0002B0180932D0180913A0190913B01A091B9
:100100003C01B0913D010396A11DB11D80933001CA
:1001100090933101A0933201B093330180913A0161
:1001200090913B01A0913C01B0913D0188519C4FC1
:10013000AF4FBF4F8093340190933501A0933601A8
:10014000B0933701EE24E394C2E3D0E030E2F32E23
:1001500080910001882309F43FC080913001909183
:100160003101A0913201B091330120913A013091D7
:100170003B0140913C0150913D0182179307A40738
:10018000B50750F50496A11DB11D809330019093E1
:100190003101A0933201B0933301799B02C080EC0E
:1001A00001C080E49FB190FF8F7B9091C10191FDD0
:1001B000FCCFF8949091C1019E7F9093C1018093F0
:1001C0002C018091C10182608093C10180917800EF
:1001D0008062809378007894809134019091350109
:1001E000A0913601B091370120913A0130913B0145
:1001F00040913C0150913D010696A11DB11D821711
:100200009307A407B50708F0F9C0399BF7C08091A0
:100210007800877D809378008C9A1092000182E8A4
:1002200091E00E94130280913A0190913B01A091CC
:100230003C01B0913D018854944FAF4FBF4F809324
:100240003E0190933F01A0934001B093410130C023
:1002500080913A0190913B01A0913C01B0913D0108
:1002600020913E0130913F01409140015091410168
:10027000281739074A075B07D8F4E09200018091FC
:10028000780088628093780080913A0190913B01D8
:10029000A0913C01B0913D010396A11DB11D809339
:1002A000300190933101A0933201B09333018C98C7
:1002B000809142018823B1F1F89410924201789420
:1002C0008091C2018F5F8093C201803259F51092F4
:1002D000C201F8948091380190913901789423E01B
:1002E000969587952A95E1F7BE010E941A05982FE9
:1002F00092509F32B8F48C9A893199F08A3140F04B
:10030000809163008F3F69F0809163008F5F07C029
:1003100080916300882329F080916300815080934D
:1003200063008C988091C10183FF2BC080910001F4
:10033000882301F182E891E00E943A02843108F1B9
:1003400000E010E00AC0F801EE5FFE4F608182E835
:1003500091E00E943F020F5F1F4F80912E0190E0BD
:100360000817190784F3F8948091780080628093CD
:10037000780001C0F8948091C101877F8093C1010A
:1003800078948091C10184FF23C083E491E00E94AE
:100390003A028431E8F000E010E00AC0F801EA5EB9
:1003A000FE4F608183E491E00E943F020F5F1F4F88
:1003B00080912F0190E00817190784F3F89485B510
:1003C000806285BD8091C1018F7E8093C101789448
:1003D0008091C10182FF07C0F8948091C1018B7F99
:1003E0008093C101789481B38F2581BB86B78061EA
:1003F00086BF889586B78F7E86BFAACE8091000182
:10040000882309F425CF54CF83E491E00E940D02A4
:1004100082E891E00E940D020895FC0114AE8BE386
:1004200085AF16AE0895FC0114AE8BE385AF16AE12
:100430000895FC0196AD81E09C3309F080E00895B9
:10044000FC0196AD81E0911180E00895FC0124AD9E
:10045000820F911DFC0180810895FC0186AD8150C1
:1004600086AF84AD90E001966CE370E00E942E05AB
:1004700084AF0895FC0196AD8CE3891B0895FC01BF
:10048000462F85AD90E001966CE370E00E942E054A
:1004900085AF86AD8F5F86AF85ADE80FF11D4083D8
:1004A000089589E484BF80E886B980B38C7F80BBDF
:1004B00082B3836082BB80B38C6780BB81B3837857
:1004C00081BB519A419812BC93E391BD16BC86E062
:1004D00084BD13BC28E925BD10927500909374006B
:1004E00010927900809377001092760080E98093D3
:1004F00078003999FECF80917800886080937800E9
:1005000063986B9A739882E08BBB8AB781608ABFCD
:1005100019BA8CE988BB84E08ABB8AB788608ABF35
:1005200080917100816080937100789408951F928A
:100530000F920FB60F9211248F939F93AF93BF9397
:1005400080913A0190913B01A0913C01B0913D0115
:100550000196A11DB11D80933A0190933B01A09398
:100560003C01B0933D0181B390E4892781BBBF91E9
:10057000AF919F918F910F900FBE0F901F90189584
:100580001F920F920FB60F9211242F933F938F93C8
:100590009F93AF93BF9380913A0190913B01A091BB
:1005A0003C01B0913D018093340190933501A093BB
:1005B0003601B09337018091C3018F5F8093C301EF
:1005C000853608F455C080910001882309F450C095
:1005D00085E68093C3018091710086FF39C009B61A
:1005E00007FE08C0809171008F7B8093710089B7EE
:1005F00088683DC080916800909169009093C50122
:100600008093C401209171002F7B2093710029B742
:10061000286029BF2091C6013091C701821B930B2E
:10062000909339018093380180913801909139017C
:1006300029E184369207E0F48091380190913901E4
:1006400022E08D3B9207A0F081E08093420110C030
:1006500080916800909169009093C7018093C601D2
:100660008091710080648093710089B7886089BF30
:10067000BF91AF919F918F913F912F910F900FBE9E
:100680000F901F9018951F920F920FB60F92112482
:100690002F933F934F935F936F937F938F939F938A
:1006A000AF93BF93EF93FF938091C901813081F1A4
:1006B000813020F0823009F054C040C08091C101E7
:1006C00081FF0BC080912A018093730081E08093A9
:1006D000CA018093C901639846C082E891E00E94F4
:1006E0002002882331F0809178008F7D80937800FC
:1006F0003AC0639A82E891E00E94260280937300D8
:1007000082E891E00E942D0282E08093C9012BC013
:100710008091CA01E82FF0E0E65DFE4F9081909352
:1007200073008F5F8093CA018330E9F41092C9018E
:100730008091C1018D7F8093C10115C082E891E055
:100740000E9426028E3711F41092C90182E891E0CE
:100750000E9426028093730082E891E00E942D029D
:1007600002C01092C901FF91EF91BF91AF919F918B
:100770008F917F916F915F914F913F912F910F904A
:100780000FBE0F901F9018951F920F920FB60F92E9
:1007900011242F933F934F935F936F937F938F9386
:1007A0009F93AF93BF93EF93FF938091C8018823EA
:1007B00019F0823049F517C083E491E00E942002CD
:1007C000882321F085B58F7D85BD1EC083E491E02F
:1007D0000E94260280BD83E491E00E942D0282E007
:1007E0008093C80111C083E491E00E9426028E37F5
:1007F00011F41092C80183E491E00E94260280BDAA
:1008000083E491E00E942D02FF91EF91BF91AF919F
:100810009F918F917F916F915F914F913F912F9118
:100820000F900FBE0F901F9018951F920F920FB64A
:100830000F9211248F939F93EF93FF9396B580B5FA
:100840009C7141F08091C101877F8093C10110921A
:100850002E014CC09091C10193FD48C09091CC01F4
:10086000913031F0913088F1923009F03FC00EC0E4
:100870008E37E1F190912E01E92FF0E0EE5FFE4F0F
:1008800080839F5F90932E0182E02EC08E3791F47B
:100890009091C10198609093C10190912E01E92F30
:1008A000F0E0EE5FFE4F80839F5F90932E011092E9
:1008B000CC011CC090912E01E92FF0E0EE5FFE4FBD
:1008C00080839F5F90932E0111C08E3779F4109230
:1008D0002E0190912E01E92FF0E0EE5FFE4F808314
:1008E0009F5F90932E0181E08093CC01FF91EF9167
:1008F0009F918F910F900FBE0F901F9018951F9290
:100900000F920FB60F9211248F939F93EF93FF9343
:1009100090917900809173009C7141F08091C101A8
:100920008F7E8093C10110922F017BC09091C101F5
:1009300094FD77C09091C10192FD73C09091CB015D
:10094000923011F1933030F4992389F1913009F00C
:1009500068C007C0933009F440C0943009F061C00A
:100960004CC08E3709F45DC090912F01933150F443
:1009700090912F01E92FF0E0EA5EFE4F80839F5FA8
:1009800090932F0182E036C08E3709F040C09091DD
:10099000C10190619093C10190912F01E92FF0E086
:1009A000EA5EFE4F80839F5F90932F012DC08E37AC
:1009B00071F410922F0190912F01E92FF0E0EA5E7F
:1009C000FE4F80839F5F90932F0181E013C08B3196
:1009D00041F510922F0183E00DC08B3111F1909100
:1009E0002F01E92FF0E0EA5EFE4F80839F5F909336
:1009F0002F0184E08093CB0114C08B3141F48091AE
:100A0000C10184608093C1011092CB010AC0909112
:100A10002F01E92FF0E0EA5EFE4F80839F5F909305
:100A20002F01FF91EF919F918F910F900FBE0F902B
:100A30001F901895AA1BBB1B51E107C0AA1FBB1F23
:100A4000A617B70710F0A61BB70B881F991F5A955A
:100A5000A9F780959095BC01CD01089597FB092ECB
:100A600007260AD077FD04D0E5DF06D000201AF46F
:100A7000709561957F4F0895F6F7909581959F4FFA
:100A80000895EE0FFF1F0590F491E02D0994F8945E
:020A9000FFCF96
:020A9200010061
:00000001FF
