:100000000C943B000C9463000C9463000C9463000C
:100010000C9463000C9463000C9448010C946300EE
:100020000C9463000C9463000C940D010C94630019
:100030000C9463000C9463000C9463000C946300B4
:100040000C940B030C94D1010C9463000C9463008A
:100050000C94AB020C9456020C9463000C94630055
:100060000C9463000C9463000C9463000C94630084
:100070000C946300CC0511241FBECFEFD2E0DEBF8D
:10008000CDBF11E0A0E0B1E0E8E0FCE002C00590E7
:100090000D92A230B107D9F711E0A2E0B1E001C0A2
:1000A0001D92A93DB107E1F710E0C6E7D0E004C01A
:1000B0002297FE010E94FE05C437D107C9F70E94AE
:1000C000E7030C9402060C94000090E0FC01E05061
:1000D000FF4F6083509100014091010121E030E029
:1000E000541711F020E030E02817390721F08091F3
:1000F0000B018F5F03C080910B01815080930B0136
:100100000895FC0114AE8BE385AF16AE0895FC0193
:1001100014AE8BE385AF16AE0895FC0196AD81E079
:100120009C3309F080E00895FC0196AD81E09111C7
:1001300080E00895FC0124ADE20FF11D8081089557
:10014000FC0186AD815086AF84AD90E001966CE3F2
:1001500070E00E94E80584AF0895FC0196AD8CE341
:10016000891B0895FC01262F85AD90E001966CE374
:1001700070E00E94E80585AF86AD8F5F86AF85ADE4
:10018000E80FF11D2083089589E484BF80E886B9D3
:1001900080B38C7F80BB82B3836082BB80B38C676B
:1001A00080BB81B3837881BB459A519A419812BC38
:1001B00093E391BD16BC86E084BD13BC20E925BD48
:1001C00010927500909374001092790080937700DC
:1001D0001092760088E980937800639A6B9A7398FE
:1001E00088B18A7E88B98AB185618AB989B1856109
:1001F00089B982E08BBB8AB781608ABF19BA8CE962
:1002000088BB84E08ABB8AB788608ABFE1E7F0E0F8
:10021000808181608083789408951F920F920FB639
:100220000F9211248F939F93AF93BF938091CB0133
:100230009091CC01A091CD01B091CE010196A11D6C
:10024000B11D8093CB019093CC01A093CD01B093CD
:10025000CE0181B390E4892781BBBF91AF919F917B
:100260008F910F900FBE0F901F9018950F931F93B3
:100270008FB7F8940091CB011091CC012091CD0162
:100280003091CE018FBFB801C9011F910F91089520
:100290001F920F920FB60F9211242F933F934F93FB
:1002A0005F936F937F938F939F93AF93BF93EF93DE
:1002B000FF930E943601609394017093950180939F
:1002C0009601909397018091CF018F5F8093CF012A
:1002D000853608F455C080918D01811146C050C00B
:1002E00009B607FE08C0809171008F7B8093710072
:1002F00089B7886838C080916800909169009093B0
:10030000D1018093D001209171002F7B2093710047
:1003100029B7286029BF2091D2013091D301821BD7
:10032000930B90939301809392018091920190910D
:1003300093018436994120F5809192019091930127
:100340008D3B9240D0F41CC0809168009091690070
:100350009093D3018093D201809171008064809347
:10036000710089B7886089BF0BC085E68093CF0193
:100370008091710086FDB4CFE7CF81E080938C013E
:10038000FF91EF91BF91AF919F918F917F916F916D
:100390005F914F913F912F910F900FBE0F901F9043
:1003A00018951F920F920FB60F9211242F933F931F
:1003B0004F935F936F937F938F939F93AF93BF936D
:1003C000EF93FF938091D4018130A9F120F0823026
:1003D00009F059C046C0A99B10C006B406FEFDCF67
:1003E000639A86B5806486BD1092D50180919E0186
:1003F00080BD81E08093D5011BC08EE091E00E941A
:100400009400882321F085B58F7D85BD3EC006B45C
:1004100006FEFDCF639886B5806486BD8EE091E0D0
:100420000E949A0080BD8EE091E00E94A00082E0D0
:100430008093D4012AC09091D501E92FF0E0E256D3
:10044000FE4F808180BD9F5F9093D501AF9B02C01E
:1004500085E001C083E0981318C01092D401A998D8
:1004600014C08EE091E00E949A008E3711F4109231
:10047000D4018EE091E00E949A0080BD8EE091E070
:100480000E94A00002C01092D401FF91EF91BF9191
:10049000AF919F918F917F916F915F914F913F911C
:1004A0002F910F900FBE0F901F9018951F920F92D3
:1004B0000FB60F9211242F933F934F935F936F9337
:1004C0007F938F939F93AF93BF93EF93FF9380910D
:1004D000D601882319F0823069F51AC08DE491E0C5
:1004E0000E949400882331F0809178008F7D809362
:1004F000780020C08DE491E00E949A008093730000
:100500008DE491E00E94A00082E08093D60112C0A9
:100510008DE491E00E949A008E3711F41092D6017A
:100520008DE491E00E949A00809373008DE491E045
:100530000E94A000FF91EF91BF91AF919F918F9189
:100540007F916F915F914F913F912F910F900FBECF
:100550000F901F9018951F920F920FB60F921124B3
:100560008F939F93EF93FF93909179008091730005
:100570009C7121F0AB9810929D0144C0AB9942C090
:100580009091D701913021F060F19230D9F50EC0F1
:100590008E37C1F190919D01E92FF0E0E954FE4FB3
:1005A00080839F5F90939D0182E02AC08E3771F413
:1005B000AB9A90919D01E92FF0E0E954FE4F8083C2
:1005C0009F5F90939D011092D7011CC090919D0157
:1005D000E92FF0E0E954FE4F80839F5F90939D01E7
:1005E00011C08E3779F410929D0190919D01E92FF1
:1005F000F0E0E954FE4F80839F5F90939D0181E07E
:100600008093D701FF91EF919F918F910F900FBE33
:100610000F901F9018951F920F920FB60F921124F2
:100620008F939F93EF93FF9396B580B59C7121F0C4
:10063000AC9810929C016CC0AC996AC0AA9B59C03E
:1006400067C08E3709F464C090919C01933150F4D7
:1006500090919C01E92FF0E0ED55FE4F80839F5F64
:1006600090939C0182E01DC08E37C1F5AC9A9091A9
:100670009C01E92FF0E0ED55FE4F80839F5F909342
:100680009C0129C08E3781F410929C0190919C01AD
:10069000E92FF0E0ED55FE4F80839F5F90939C0122
:1006A00081E08093D80134C08B3191F510929C0188
:1006B00083E0F7CF8B3161F190919C01E92FF0E05D
:1006C000ED55FE4F80839F5F90939C0184E0E9CFBE
:1006D0008B3121F4AA9A1092D8011AC090919C01F2
:1006E000E92FF0E0ED55FE4F80839F5F90939C01D2
:1006F0000FC09091D801923009F4B6CF28F4992315
:1007000009F2913029F49DCF9330A1F2943001F396
:10071000FF91EF919F918F910F900FBE0F901F90BF
:10072000189582B38C6082BB81B3837F81BB829832
:10073000839808959FB181E0911101C080E00895F0
:10074000839A8DE08A95F1F70000829A8DE08A9570
:10075000F1F70000089582988DE08A95F1F7000086
:100760008398089598E087FF02C0839801C0839A18
:10077000880F829825E02A95F1F70000829A91501F
:1007800091F782987A9BFECF829A839A0895880F78
:1007900081600C94B203880F0C94B203282F8398C5
:1007A00098E080E0880F829832E03A95F1F700C037
:1007B0007B998160829A9150A9F72111839A82983E
:1007C00095E09A95F1F70000829A839A089588ED52
:1007D0008FBD13BEA89A0E94C4000E9491038A9AFA
:1007E00080B7816280BF80B7886080BF8BE18093D3
:1007F0009E0181E080939F010E9436016D5F7F4FD3
:100800008F4F9F4F609398017093990180939A0145
:1008100090939B010E94360168517C4F8F4F9F4FF0
:100820006093940170939501809396019093970142
:1008300011E0FF24FA94C2E3D0E000E233E0E32EBB
:1008400080918D01882361F18090980190909901A9
:10085000A0909A01B0909B010E94360186169706DF
:10086000A806B90608F44CC11BC080E4789B8F7BB6
:10087000A999FECFF894A8988093A001AF9B0BC0D4
:1008800080910B018093A1013C9B03C01092A201B7
:1008900002C01093A201A99A85B5806285BD7894A3
:1008A0008090940190909501A0909601B09097014E
:1008B0000E94360126E0820E911CA11CB11C8616F6
:1008C0009706A806B90608F04BC1399930C148C14E
:1008D00080908E0190908F01A0909001B090910136
:1008E0000E94360186169706A806B90608F43DC18F
:1008F000AD9B3BC180918C018823A9F1F8941092A3
:100900008C01789480910D018F5F80930D0180326E
:1009100051F510920D01F8948091920190919301FC
:10092000789423E0969587952A95E1F7BE010E9479
:10093000D405982F92509F32B0F48C9A893191F05F
:1009400040F0809163008F3F69F0809163008F5F7A
:1009500007C080916300882329F080916300815053
:10096000809363008C98AB9B35C080918D01882368
:1009700069F18EE091E00E94AD008431B0F0F8940E
:10098000B12C0AC0EB2DF0E0E954FE4F60818EE0FF
:1009900091E00E94B200B39480919D01B81690F34B
:1009A00085B5806285BDAB987894829A8A980E94BA
:1009B000360168537F4F8F4F9F4F609302017093B2
:1009C0000301809304019093050115C0F894AB983E
:1009D000789411C00E94360180900201909003012A
:1009E000A0900401B090050186169706A806B906E6
:1009F00010F482988A9AAC9B1EC08DE491E00E940C
:100A0000AD008431C0F0F894B12C0AC0EB2DF0E0B9
:100A1000ED55FE4F60818DE491E00E94B200B394E9
:100A200080919C01B81690F3809178008062809349
:100A30007800AC987894AA9B03C0F894AA9878940C
:100A400081B3802781BBAE9926C00E943601809079
:100A5000060190900701A0900801B0900901861648
:100A60009706A806B906B8F4D501C4014996A11D98
:100A7000B11D8093060190930701A0930801B093E4
:100A8000090129B1202729B9893E9340A105B10563
:100A900010F0AE9A4D9867B1617087B190910001E6
:100AA000691711F080E007C0682F64708091010120
:100AB000681719F081E00E946500AF9919C00E9483
:100AC00036018090060190900701A0900801B09037
:100AD000090186169706A806B90640F480910B0115
:100AE000882331F0AF9AE0929F0102C010920B016F
:100AF00086B7806186BF889586B78F7E86BFA0CE79
:100B00008091980190919901A0919A01B0919B01D7
:100B10000496A11DB11D8093980190939901A09313
:100B20009A01B0939B01799BA0CE80EC9FCE85B5B6
:100B3000877D85BD8C9A10928D018EE091E00E9498
:100B400087000E9436016854744F8F4F9F4F609307
:100B50008E0170938F018093900190939101CACE82
:100B600080918D018111C6CEB3CE10938D01AD9AC7
:100B700085B5886285BD0E9436016D5F7F4F8F4FBE
:100B80009F4F609398017093990180939A0190937D
:100B90009B01F0BC8C98AECE8DE491E00E94810068
:100BA0008EE091E00C948100AA1BBB1B51E107C0B1
:100BB000AA1FBB1FA617B70710F0A61BB70B881FED
:100BC000991F5A95A9F780959095BC01CD0108957C
:100BD00097FB072E16F4009407D077FD09D00E94EA
:100BE000D40507FC05D03EF4909581959F4F08955C
:100BF000709561957F4F0895EE0FFF1F0590F4915A
:080C0000E02D0994F894FFCFE8
:020C08000101E8
:00000001FF
