:100000000C943B000C9463000C9463000C9463000C
:100010000C9463000C9463000C9436010C94630000
:100020000C9463000C9463000C940D010C94630019
:100030000C9463000C9463000C9463000C946300B4
:100040000C9406030C94B9010C9463000C946300A7
:100050000C949B020C9446020C9463000C94630075
:100060000C9463000C9463000C9463000C94630084
:100070000C946300150611241FBECFEFD2E0DEBF43
:10008000CDBF11E0A0E0B1E0EAE9FCE002C00590DC
:100090000D92A230B107D9F711E0A2E0B1E001C0A2
:1000A0001D92A53DB107E1F710E0C6E7D0E004C01E
:1000B0002297FE010E944706C437D107C9F70E9464
:1000C000F4030C944B060C94000090E0FC01E0500B
:1000D000FF4F6083509100014091010121E030E029
:1000E000541711F020E030E02817390721F08091F3
:1000F00007018F5F03C08091070181508093070142
:100100000895FC0114AE8BE385AF16AE0895FC0193
:1001100014AE8BE385AF16AE0895FC0196AD81E079
:100120009C3309F080E00895FC0196AD81E09111C7
:1001300080E00895FC0124ADE20FF11D8081089557
:10014000FC0186AD815086AF84AD90E001966CE3F2
:1001500070E00E94310684AF0895FC0196AD8CE3F7
:10016000891B0895FC01262F85AD90E001966CE374
:1001700070E00E94310685AF86AD8F5F86AF85AD9A
:10018000E80FF11D2083089589E484BF80E886B9D3
:1001900080B38C7F80BB82B3836082BB80B38C676B
:1001A00080BB81B3837881BB459A519A419812BC38
:1001B00093E391BD16BC86E084BD13BC20E925BD48
:1001C00010927500909374001092790080937700DC
:1001D0001092760088E980937800639A6B9A7398FE
:1001E00088B18A7E88B98AB185618AB989B1856109
:1001F00089B982E08BBB8AB781608ABF19BA8CE962
:1002000088BB84E08ABB8AB788608ABFE1E7F0E0F8
:10021000808181608083789408951F920F920FB639
:100220000F9211248F939F93AF93BF9380918E0170
:1002300090918F01A0919001B09191010196A11D23
:10024000B11D80938E0190938F01A0939001B09384
:10025000910181B390E4892781BBBF91AF919F91B8
:100260008F910F900FBE0F901F9018951F920F92B5
:100270000FB60F9211242F933F938F939F93AF93B9
:10028000BF9380918E0190918F01A0919001B091C8
:1002900091018093940190939501A0939601B0935E
:1002A00097018091CB018F5F8093CB01853608F455
:1002B00055C080918901811146C050C009B607FE22
:1002C00008C0809171008F7B8093710089B7886826
:1002D00038C080916800909169009093CD0180931F
:1002E000CC01209171002F7B2093710029B72860E9
:1002F00029BF2091CE013091CF01821B930B9093A7
:1003000093018093920180919201909193018436A0
:10031000994120F580919201909193018D3B9240FB
:10032000D0F41CC080916800909169009093CF0137
:100330008093CE018091710080648093710089B7B1
:10034000886089BF0BC085E68093CB0180917100E6
:1003500086FDB4CFE7CF81E080938801BF91AF9154
:100360009F918F913F912F910F900FBE0F901F90F3
:1003700018951F920F920FB60F9211242F933F934F
:100380004F935F936F937F938F939F93AF93BF939D
:10039000EF93FF938091D0018130B9F120F082304A
:1003A00009F061C04EC08091090181FF10C006B400
:1003B00006FEFDCF639A86B5806486BD1092D1019A
:1003C00080919E0180BD81E08093D1011BC08AE0B5
:1003D00091E00E949400882321F085B58F7D85BD32
:1003E00044C006B406FEFDCF639886B5806486BD22
:1003F0008AE091E00E949A0080BD8AE091E00E942C
:10040000A00082E08093D00130C09091D101E92F0B
:10041000F0E0E256FE4F808180BD9F5F9093D10156
:100420008091090187FF02C085E001C083E0981335
:100430001CC01092D001809109018D7F8093090129
:1004400014C08AE091E00E949A008E3711F4109255
:10045000D0018AE091E00E949A0080BD8AE091E09C
:100460000E94A00002C01092D001FF91EF91BF91B5
:10047000AF919F918F917F916F915F914F913F913C
:100480002F910F900FBE0F901F9018951F920F92F3
:100490000FB60F9211242F933F934F935F936F9357
:1004A0007F938F939F93AF93BF93EF93FF9380912D
:1004B000D201882319F0823069F51AC089E491E0ED
:1004C0000E949400882331F0809178008F7D809382
:1004D000780020C089E491E00E949A008093730024
:1004E00089E491E00E94A00082E08093D20112C0D2
:1004F00089E491E00E949A008E3711F41092D201A3
:1005000089E491E00E949A008093730089E491E06D
:100510000E94A000FF91EF91BF91AF919F918F91A9
:100520007F916F915F914F913F912F910F900FBEEF
:100530000F901F9018951F920F920FB60F921124D3
:100540008F939F93EF93FF93909179008091730025
:100550009C7141F080910901877F8093090110927D
:100560009D014BC09091090193FD47C09091D3012B
:10057000913029F088F1923009F03FC00EC08E37DB
:10058000E1F190919D01E92FF0E0E954FE4F808365
:100590009F5F90939D0182E02EC08E3791F49091E1
:1005A000090198609093090190919D01E92FF0E075
:1005B000E954FE4F80839F5F90939D011092D30179
:1005C0001CC090919D01E92FF0E0E954FE4F80831B
:1005D0009F5F90939D0111C08E3779F410929D0119
:1005E00090919D01E92FF0E0E954FE4F80839F5FD9
:1005F00090939D0181E08093D301FF91EF919F91B2
:100600008F910F900FBE0F901F9018951F920F9211
:100610000FB60F9211248F939F93EF93FF9396B58C
:1006200080B59C7141F0809109018F7E8093090112
:1006300010929C017AC09091090194FD76C090912E
:10064000090192FF62C071C08E3709F46EC09091AB
:100650009C01933150F490919C01E92FF0E0ED550D
:10066000FE4F80839F5F90939C0182E022C08E3773
:1006700009F040C090910901906190930901909117
:100680009C01E92FF0E0ED55FE4F80839F5F909332
:100690009C012DC08E3781F410929C0190919C0199
:1006A000E92FF0E0ED55FE4F80839F5F90939C0112
:1006B00081E08093D40139C08B31B9F510929C014F
:1006C00083E0F7CF8B3189F190919C01E92FF0E025
:1006D000ED55FE4F80839F5F90939C0184E0E9CFAE
:1006E0008B3141F48091090184608093090110925B
:1006F000D4011BC090919C01E92FF0E0ED55FE4F15
:1007000080839F5F90939C0110C09091D4019230A0
:1007100009F4ADCF30F4992309F4BCCF913029F41A
:1007200093CF933079F29430D9F2FF91EF919F916A
:100730008F910F900FBE0F901F90189582B38C6011
:1007400082BB81B3837F81BB8298839808959FB1D8
:1007500081E0911101C080E00895839A8DE08A952F
:10076000F1F70000829A8DE08A95F1F70000089574
:1007700082988DE08A95F1F700008398089598E0BB
:1007800087FF02C0839801C0839A880F829825E072
:100790002A95F1F70000829A915091F782987A9BFE
:1007A000FECF829A839A0895880F81600C94BF03CC
:1007B000880F0C94BF03282F839898E080E0880F5F
:1007C000829832E03A95F1F700C07B998160829A75
:1007D0009150A9F72111839A829895E09A95F1F7A3
:1007E0000000829A839A089588ED8FBD13BE809190
:1007F00009018160809309010E94C4000E949E0348
:100800008BE180939E0181E080939F0180918E0116
:1008100090918F01A0919001B09191010396A11D3B
:10082000B11D8093980190939901A0939A01B09380
:100830009B0180918E0190918F01A0919001B091C8
:10084000910188519C4FAF4FBF4F8093940190937B
:100850009501A0939601B0939701C1E01FEF32E399
:10086000C32ED12CD0E203E080918901882309F4C2
:100870003EC08091980190919901A0919A01B09108
:100880009B0140918E0150918F0160919001709178
:10089000910184179507A607B70708F472C127C00E
:1008A00080E4789B8F7B9091090191FDFCCFF894B7
:1008B000909109019E7F909309018093A0018091FE
:1008C000090187FF0BC0809107018093A1013C9B28
:1008D00003C01092A20102C0C093A201809109013D
:1008E00082608093090185B5806285BD789480918E
:1008F000940190919501A0919601B091970140913A
:100900008E0150918F016091900170919101069636
:10091000A11DB11D84179507A607B70708F05FC191
:1009200039993EC15CC180918E0190918F01A09157
:100930009001B091910140918A0150918B01609199
:100940008C0170918D01481759076A077B0708F4DD
:100950004CC18091090185FF48C18091880188239D
:10096000A9F1F894109288017894809108018F5F22
:1009700080930801803251F510920801F89480911B
:10098000920190919301789423E0969587952A950A
:10099000E1F7B6010E941D06982F92509F32B0F4E5
:1009A0008C9A893191F040F0809163008F3F69F01B
:1009B000809163008F5F07C080916300882329F0D6
:1009C000809163008150809363008C98809109012D
:1009D00083FF2BC080918901882301F18AE091E097
:1009E0000E94AD00843168F420C0F701E954FE4F45
:1009F00060818AE091E00E94B2002FEFE21AF20AD1
:100A000002C0E12CF12C80919D0190E0E816F906DE
:100A100064F3F89485B5806285BD01C0F894809137
:100A20000901877F8093090178948091090184FFEF
:100A300027C089E491E00E94AD00843168F420C0B1
:100A4000F701ED55FE4F608189E491E00E94B2000C
:100A50008FEFE81AF80A02C0E12CF12C80919C017A
:100A600090E0E816F90664F3F894809178008062CB
:100A700080937800809109018F7E8093090178949A
:100A80008091090182FF07C0F894809109018B7F52
:100A900080930901789481B38D2781BB80910901EE
:100AA00086FD2EC040918E0150918F016091900182
:100AB000709191018091020190910301A091040134
:100AC000B091050184179507A607B707C8F44996A2
:100AD000A11DB11D8093020190930301A093040115
:100AE000B093050129B12D2729B9893E9340A1056D
:100AF000B10530F0809109018064809309014D981F
:100B000067B1617087B190910001691711F080E0C1
:100B100007C0682F647080910101681719F081E0A7
:100B20000E9465008091090187FD23C040918E01DC
:100B300050918F016091900170919101809102011B
:100B400090910301A0910401B091050184179507CC
:100B5000A607B70760F480910701882351F08091C0
:100B6000090180688093090100939F0102C01092DF
:100B7000070186B7806186BF889586B78F7E86BF5E
:100B800073CE0496A11DB11D809398019093990195
:100B9000A0939A01B0939B01799B82CE80EC81CE89
:100BA00085B5877D85BD8C9A109289018AE091E098
:100BB0000E94870080918E0190918F01A0919001F9
:100BC000B09191018854944FAF4FBF4F80938A01E9
:100BD00090938B01A0938C01B0938D01BECE809138
:100BE0008901882309F49FCEB8CEC09389018091F2
:100BF000090180628093090185B5886285BD809175
:100C00008E0190918F01A0919001B0919101039676
:100C1000A11DB11D8093980190939901A0939A0111
:100C2000B0939B0110BD8C9898CE89E491E00E940E
:100C300081008AE091E00C948100AA1BBB1B51E16A
:100C400007C0AA1FBB1FA617B70710F0A61BB70B3C
:100C5000881F991F5A95A9F780959095BC01CD01E1
:100C6000089597FB072E16F4009407D077FD09D05E
:100C70000E941D0607FC05D03EF4909581959F4F7C
:100C80000895709561957F4F0895EE0FFF1F0590B1
:0A0C9000F491E02D0994F894FFCFD1
:020C9A00010156
:00000001FF
